:100000000C9412060C943A060C943A060C943A0698
:100010000C943A060C943A060C943A060C943A0660
:100020000C943A060C943A060C943A060C943A0650
:100030000C943A060C943A060C943A060C943A0640
:100040000C94EA200C943A060C94B8200C9492205C
:100050000C943A060C943A060C943A060C943A0620
:100060000C9434210C943A0641542B5253540020E2
:100070002020204150204661696C20212020200052
:1000800020202057694669204661696C2021202084
:100090000041542B43574A41503D220041542B43C9
:1000A000574D4F44453D310041542B4349504D5528
:1000B000583D300020202020526574727920004184
:1000C000542B43575141500041542B434950434C0A
:1000D0004F5345000D0A436F6E6E656374696F6E12
:1000E0003A20636C6F73650D0A0D0A00436F6E74DE
:1000F000656E742D4C656E6774683A20007D0D0A3C
:10010000002C20226669656C643236223A002C206D
:10011000226669656C643235223A002C20226669B9
:10012000656C643234223A002C20226669656C6466
:100130003233223A00222C20226669656C64323206
:10014000223A007B226669656C6434223A220020E0
:10015000485454502F312E310D0A002F6D656173B4
:1001600000504F5354202F6170692F76312F4B4828
:100170002F000D0A436F6E6E656374696F6E3A20CF
:100180004B6565702D416C6976650D0A0D0A00435B
:100190006F6E74656E742D4C656E6774683A2000DE
:1001A000227D0D0A007B226669656C6434223A2246
:1001B000002F6669656C643420485454502F312EEA
:1001C000310D0A00504F5354202F6170692F763142
:1001D0002F4B482F000D0A436F6E6E656374696F75
:1001E0006E3A204B6565702D416C6976650D0A0D80
:1001F0000A00436F6E74656E742D4C656E6774688B
:100200003A2000227D0D0A007B226669656C64320B
:10021000223A22002F6669656C643220485454509B
:100220002F312E310D0A00504F5354202F61706929
:100230002F76312F4B482F0020485454502F312E09
:10024000310D0A002F656F7400474554202F6170EF
:10025000692F76312F4B482F0020485454502F31AE
:100260002E310D0A002F6669656C643600474554CF
:10027000202F6170692F76312F4B482F0020485472
:1002800054502F312E310D0A002F6669656C64358C
:1002900000474554202F6170692F76312F4B482F2E
:1002A0000020485454502F312E310D0A002F66691A
:1002B000656C64313000474554202F6170692F769A
:1002C000312F4B482F0020485454502F312E310DE0
:1002D0000A002F6669656C64313300474554202F4E
:1002E0006170692F76312F4B482F000D0A00436F44
:1002F0006E6E656374696F6E3A204B6565702D4153
:100300006C6976650D0A0020485454502F312E3107
:100310000D0A002F6669656C643800474554202F2C
:100320006170692F76312F4B482F000D0A436F6E95
:100330006E656374696F6E3A204B6565702D416C14
:100340006976650D0A0D0A00436F6E74656E742D33
:100350004C656E6774683A2000227D0D0A007B228E
:100360006669656C6434223A220020485454502F48
:10037000312E310D0A002F73746172742F66696516
:100380006C643400504F5354202F6170692F7631C4
:100390002F4B482F0020485454502F312E310D0A36
:1003A000002F70656E64696E672D636F6E66696796
:1003B0002F6669656C643300474554202F6170696E
:1003C0002F76312F4B482F0041542B43575141502A
:1003D0000041542B434950434C4F5345000D0A00F4
:1003E000436F6E6E656374696F6E3A204B6565701E
:1003F0002D416C6976650D0A0020485454502F3108
:100400002E310D0A00474554202F63757272656EB8
:1004100074646174650057656220446174612026CC
:1004200020496E7075740053796E6320202020007F
:10043000486F73743A207365727665722E617175B8
:100440006177697A2E6E65740D0A00486F73743A8D
:10045000207365727665722E6171756177697A2E87
:100460006E65740D0A0D0A00486F73743A20736547
:10047000727665722E6171756177697A2E6E657418
:100480000D0A0020202020200020413920002020BB
:1004900020004C202000482020004C4620004B48E3
:1004A000200020202020002020002E00000000003E
:1004B000240027002A0000000000250028002B004F
:1004C00000000000230026002900040404040404A2
:1004D00004040202020202020303030303030102F3
:1004E00004081020408001020408102001020408C2
:1004F00010200000000800020100000304070000B3
:100500000000000000004B48312D30302D3030000D
:100510004C0048004C434420300020204B482063CE
:100520006F6E74726F6C6C6572200041542B435770
:100530005141500041542B43495053455256455266
:100540003D312C38300041542B4349504D55583DD6
:10055000310041542B43574D4F44453D32002C3020
:100560000041542B43575341503D224171756177EF
:10057000697A5F4B48222C22222C00576946692059
:100580005365747570202020202020003C68746D15
:100590006C207374796C653D226261636B67726F66
:1005A000756E642D636F6C6F723A706F77646572ED
:1005B000626C75653B223E3C686561643E3C7363DA
:1005C000726970743E737369643D22223B70617777
:1005D000643D22223B74696D653D22223B66756E47
:1005E0006374696F6E20535428663129207B7661CD
:1005F000722072657175657374203D206E65772079
:10060000584D4C487474705265717565737428291F
:100610003B737369643D22737369643D222B6631B9
:100620002E737369642E76616C75652B2226223BCE
:10063000706177643D2270617373776F72643D22DD
:100640002B66312E70617373776F72642E76616CD6
:1006500075652B2226223B74696D653D2274696D98
:10066000653D222B66312E74696D652E76616C7541
:10067000652B2220223B726571756573742E6F7035
:10068000656E2822474554222C22616A61785F6991
:100690006E70757473222B737369642B7061776449
:1006A0002B74696D652C74727565293B7265717563
:1006B0006573742E73656E64286E756C6C293B616E
:1006C0006C65727428225769466920536574746991
:1006D0006E677320736176656420696E204B4820D5
:1006E000436F6E74726F6C6C657222293B77696E12
:1006F000646F772E6C6F636174696F6E2E617373B4
:1007000069676E2822687474703A2F2F7777772E76
:100710006171756177697A2E6E657422293B726505
:100720007475726E2066616C73653B7D3C2F7363DC
:10073000726970743E3C7370616E207374796C657D
:100740003D22666F6E742D66616D696C793A206129
:100750007269616C2C68656C7665746963612C7371
:10076000616E732D7365726966223E3C6831207339
:1007700074796C653D22666F6E742D73697A653A83
:10078000333030253B223E4B4820436F6E74726FEE
:100790006C6C657220576966692053657475703C8E
:1007A0002F68313E3C666F726D207374796C653DC5
:1007B00022666F6E742D73697A653A323030253B4C
:1007C00022206F6E7375626D69743D227265747557
:1007D000726E205354287468697329223E57694603
:1007E000693A3C62723E3C696E707574207479702F
:1007F000653D2274657874222069643D22737369B3
:100800006422206E616D653D2273736964222073DA
:1008100074796C653D22666F6E742D73697A653AE2
:10082000313030253B223E3C62723E3C62723EE5F6
:10083000AF86E7A2BC2050617373776F72643A3C55
:1008400062723E3C696E70757420747970653D22E9
:1008500070617373776F7264222069643D227061E6
:100860007373776F726422206E616D653D227061D3
:100870007373776F726422207374796C653D22669E
:100880006F6E742D73697A653A313030253B223EA4
:100890003C62723E3C62723EE69982E58D80205455
:1008A000696D65205A6F6E653A20474D54202B3C88
:1008B00062723E3C696E70757420747970653D2279
:1008C00074657874222069643D2274696D65222004
:1008D0006E616D653D2274696D6522207374796C5B
:1008E000653D22666F6E742D73697A653A313030DA
:1008F000253B223E3C62723E3C62723E3C696E7019
:1009000075742074797065203D20227375626D695D
:10091000742220636C6173733D22627574746F6E10
:1009200034222076616C75653D22E980A3E7B79A91
:1009300020436F6E6E65637422207374796C653D1D
:1009400022666F6E742D73697A653A313030253BBB
:10095000223E3C2F666F726D3E3C2F7370616E3E7F
:100960003C2F68746D6C3E003938340D0A436F6E4D
:100970006E656374696F6E3A20636C6F73650D0A00
:1009800000485454502F312E3120323030204F4BFC
:100990000D0A636F6E74656E742D747970653A20FC
:1009A000746578742F68746D6C3B20636861727332
:1009B00065743D7574662D380D0A636F6E74656ECF
:1009C000742D6C656E6774683A200041542B43495E
:1009D0005053454E443D302C0054696D65205A6F8C
:1009E0006E65203A0050617373776F7264203A002D
:1009F00053534944203A0041542B43574D4F4445EB
:100A00003D3100436F6E6E656374205769466920FF
:100A1000202020004B65792D696E202620537562B9
:100A20006D6974200057696669205365747570207C
:100A30005061676520002020205769466920466183
:100A4000696C2021202000576562203139322E3117
:100A500036382E342E312000576946692041717591
:100A60006177697A5F4B4820005472756520313098
:100A70006363203D20202020200043616C69627266
:100A80006174696F6E203130636300526967687406
:100A90002054756265204C6576656C004C65667403
:100AA0002054756265204C6576656C200057617432
:100AB000657220426F7820202020202020004B48A3
:100AC000202D3E205048203D20372E302020004B46
:100AD0004820746F205048206F7574707574200022
:100AE000202020202020202000446F73200041314E
:100AF0003320004131322000413131200041313179
:100B00002000413130200052657000204138200023
:100B10002041372000204135200020413420002092
:100B2000413320002041322000202020202020209E
:100B30002000202050756D702020204F7468657251
:100B400020200020205769666920202053796E6399
:100B50002020200041542B434950535441545553B5
:100B60000041542B43495053454E443D0020202022
:100B7000575757204661696C20212020200041549E
:100B80002B43495053544152543D22544350222C3C
:100B9000227365727665722E6171756177697A2E3E
:100BA0006E6574222C3830002000204F4B0020202E
:100BB0002020202020002073656320002063632014
:100BC0000031306363004E6F20202031306363209A
:100BD00020205965732000576174657220696E206A
:100BE00020202020202020005761746572206F751E
:100BF0007420202020202020004E6F202046696C89
:100C00006C2020526566696C6C0031302E300037E4
:100C10002E3020004C43442031004C43442030000F
:100C200053227A2F11241FBECFEFD8E0DEBFCDBFF5
:100C300024E0A0E1B2E001C01D92A930B207E1F7C3
:100C400012E0A0E0B1E0E8E6FBE602C005900D92FC
:100C5000A031B107D9F716E0C1E1D6E004C0219771
:100C6000FE010E946833C031D107C9F70E94CF222C
:100C70000C94A7350C9400002091180381E02132D8
:100C800008F044C08091F4028111FCCF80911703D9
:100C900092E09093F40291E09093F3029FEF90938F
:100CA000F2021092F1022093F002A7EFB2E0E0ED21
:100CB000F2E090E0291331C01092CF029091CF0260
:100CC000880F892B8093CF028091CE02813049F525
:100CD0001092CE028091CF028093BB008091BC0025
:100CE00083FDF8CF85EC8093BC008091F4028230C4
:100CF000E1F38091F2028F3FB1F08091F2028032F5
:100D0000A1F08091F202803391F084E01092F6021B
:100D1000109218031092F50208953D9131939F5F50
:100D2000C9CF85EEE0CF80E0F1CF82E0EFCF83E066
:100D3000EDCF089508950895DB0114964D915C91CF
:100D400015976D917C91DC01ED91FC910280F3810E
:100D5000E02D0994EF92FF920F931F93CF93DF93AF
:100D60008C017B01D0E0C0E0F701EC0FFD1F649126
:100D7000662361F0D801ED91FC910190F081E02DA6
:100D8000C8010995892B11F02196EECFCE01DF9194
:100D9000CF911F910F91FF90EF900895AF92BF9266
:100DA000CF92DF92EF92FF920F931F93CF93DF9337
:100DB0006C017B018B01040F151FEB015E01AE1866
:100DC000BF08C017D10759F06991D601ED91FC9188
:100DD0000190F081E02DC6010995892B79F7C501B5
:100DE000DF91CF911F910F91FF90EF90DF90CF9007
:100DF000BF90AF900895FC01538D448D252F30E0B6
:100E0000842F90E0821B930B541710F0CF96089517
:100E100001970895FC01918D828D981761F0A28D44
:100E2000AE0FBF2FB11D5D968C91928D9F5F9F730A
:100E3000928F90E008958FEF9FEF0895FC01918DC0
:100E4000828D981731F0828DE80FF11D858D90E02D
:100E500008958FEF9FEF0895FC01918D228D892FCA
:100E600090E0805C9F4F821B91098F7399270895B2
:100E700089E193E00E942C0721E0892B09F420E00E
:100E8000822F089580E090E0892B29F00E94380796
:100E900081110C9400000895FC01A48DA80FB92FB6
:100EA000B11DA35ABF4F2C91848D90E001968F7392
:100EB0009927848FA689B7892C93A089B1898C91B1
:100EC000837080648C93938D848D981306C0028800
:100ED000F389E02D80818F7D80830895EF92FF92CA
:100EE0000F931F93CF93DF93EC0181E0888F9B8D4D
:100EF0008C8D98131AC0E889F989808185FF15C007
:100F00009FB7F894EE89FF896083E889F989808129
:100F10008370806480839FBF81E090E0DF91CF91F8
:100F20001F910F91FF90EF900895F62E0B8D10E01A
:100F30000F5F1F4F0F731127E02E8C8D8E110CC089
:100F40000FB607FCFACFE889F989808185FFF5CFD4
:100F5000CE010E944C07F1CFEB8DEC0FFD2FF11D60
:100F6000E35AFF4FF0829FB7F8940B8FEA89FB8911
:100F700080818062CFCFCF93DF93EC01888D88236F
:100F8000B9F0AA89BB89E889F9898C9185FD03C0EC
:100F9000808186FD0DC00FB607FCF7CF8C9185FFD1
:100FA000F2CF808185FFEDCFCE010E944C07E9CFC3
:100FB000DF91CF910895833081F028F4813099F04A
:100FC0008230A9F008958730A9F08830C9F08430C4
:100FD000B1F4809180008F7D03C0809180008F7775
:100FE00080938000089584B58F7784BD089584B57B
:100FF0008F7DFBCF8091B0008F778093B0000895F4
:101000008091B0008F7DF9CFCF93DF93282F30E010
:10101000F901EE50FB4F8491F901E252FB4FD4915C
:10102000F901E653FB4FC491CC23A1F081110E943A
:10103000DB07EC2FF0E0EE0FFF1FE054FB4FA59114
:10104000B491EC91ED2381E090E009F480E0DF9130
:10105000CF91089580E090E0FACF1F93CF93DF9374
:10106000282F30E0F901EE50FB4F8491F901E25254
:10107000FB4FD491F901E653FB4FC491CC23A9F067
:10108000162F81110E94DB07EC2FF0E0EE0FFF1FFF
:10109000EA54FB4FA591B4918FB7F894EC911111DC
:1010A00008C0D095DE23DC938FBFDF91CF911F91D5
:1010B0000895DE2BF8CF1092C9021092C802109248
:1010C000F602109218031092F40281E08093F3026A
:1010D0001092CE0261E082E10E942D0861E083E17E
:1010E0000E942D08E9EBF0E080818E7F8083808173
:1010F0008D7F808388E48093B80085E48093BC0072
:1011000089E996E09093C7028093C6028AE996E047
:101110009093C5028093C4020895CF93DF9390E02B
:10112000FC01E252FB4F249186539B4FFC018491BA
:101130008823D1F090E0880F991FFC01E455FB4F04
:10114000A591B491FC01EA54FB4FC591D491611172
:101150000EC09FB7F8948C91E22FE0958E238C936C
:101160002881E223E8839FBFDF91CF9108958FB755
:10117000F894EC91E22BEC938FBFF6CF3FB7F89445
:1011800080918F0290919002A0919102B091920271
:1011900026B5A89B05C02F3F19F00196A11DB11DD2
:1011A0003FBFBA2FA92F982F8827BC01CD01620F0E
:1011B000711D811D911D42E0660F771F881F991FC9
:1011C0004A95D1F708958F929F92AF92BF92CF9296
:1011D000DF92EF92FF926B017C010E94BE084B01EF
:1011E0005C01C114D104E104F104B9F00E94BE080D
:1011F000681979098A099B09683E73408105910540
:1012000080F321E0C21AD108E108F10888EE880EC7
:1012100083E0981EA11CB11CE4CFFF90EF90DF90FB
:10122000CF90BF90AF909F908F9008952FB7F89474
:1012300060918B0270918C0280918D0290918E0250
:101240002FBF08950F931F930E94160960932103E7
:1012500070932203809323039093240389E193E006
:101260000E940A0797FF1DC00E94160900912103E2
:10127000109122032091230330912403601B710BF2
:10128000820B930B00911D0310911E0320911F03ED
:10129000309120036017710782079307F8F28FEFF0
:1012A0009FEF1F910F910895EF92FF920F931F935D
:1012B000CF93DF937B018C01D0E0C0E00E94220934
:1012C00097FD07C0F80181938F012196EC16FD066A
:1012D000A9F7CE01DF91CF911F910F91FF90EF9071
:1012E0000895CF92DF92EF92FF920F931F93CF93C7
:1012F000DF936A018B01D0E0C0E0E82E880FFF0881
:101300000E94220997FD0AC08E159F0539F0F80149
:1013100081938F012196CC16DD0691F7CE01DF91E6
:10132000CF911F910F91FF90EF90DF90CF90089594
:101330000F931F930E941609609321037093220359
:10134000809323039093240389E193E00E941E0776
:1013500097FF1DC00E9416090091210310912203DE
:101360002091230330912403601B710B820B930B9C
:1013700000911D0310911E0320911F033091200343
:101380006017710782079307F8F28FEF9FEF1F91A5
:101390000F9108956093860270938702809388026C
:1013A00090938902645D7E4F8F4F9F4F60938202BE
:1013B00070938302809384029093850282E090E090
:1013C00090938102809380020E94160960937C02B0
:1013D00070937D0280937E0290937F020895CF9256
:1013E000DF92EF92FF920F931F930E9416098B01D9
:1013F0009C01C0907C02D0907D02E0907E02F09033
:101400007F0260918602709187028091880290919C
:1014100089020C191D092E093F09083E13402105B8
:101420003105E0F0DC01CB010196A11DB11D8093D7
:10143000860290938702A0938802B0938902B70135
:10144000A60148515C4F6F4F7F4F40937C025093F1
:101450007D0260937E0270937F02C7CF1F910F9130
:10146000FF90EF90DF90CF9008954F925F926F9230
:101470007F928F929F92AF92BF92CF92DF92EF9224
:10148000FF920F931F93CF93DF934B015C018091E9
:10149000780290917902A0917A02B0917B0288152E
:1014A0009905AA05BB0509F4C6C08CE3C82ED12C4A
:1014B000E12CF12CC501A70196010E94273360930E
:1014C0009502CA01B901A70196010E9427336093D2
:1014D0009602C501B40120E13EE040E050E00E94E8
:1014E0002733CA01B90128E130E040E050E00E9412
:1014F000273360939702C501B40120E831E541E04C
:1015000050E00E94273369017A01CA01B9016C5F7A
:101510007F4F8F4F9F4F27E030E040E050E00E9428
:1015200027336F5F60939802412C512C320140E0C9
:1015300004E610E0C0E9D1E0242F30E02E54384F0B
:10154000F901E370FF273097F9F4C901B8010E944F
:101550001333892B31F4C901BE010E941333892B47
:1015600099F48EE691E0A0E0B0E0480E591E6A1EA4
:101570007B1ED301C201AA27BB27C816D906EA06DB
:10158000FB0638F04F5FD8CF8DE691E0A0E0B0E0E9
:10159000ECCF40939B02C90164E670E00E941333D4
:1015A000EC01C90160E971E00E941333309721F426
:1015B0002097D9F40097C9F04DE651E060E070E063
:1015C000441A550A660A770AC418D508E608F708C7
:1015D000AEE7B1E020E0213069F43097E9F52097DB
:1015E00011F40097C9F54DE106C04EE651E060E008
:1015F00070E0E6CF4C9150E070E060E031E0320FF7
:10160000C416D506E606F70640F0C41AD50AE60A5F
:10161000F70A1196232F3C30F1F62F5F20939A02A0
:10162000C394C09299028092780290927902A0921B
:101630007A02B0927B02DF91CF911F910F91FF90C0
:10164000EF90DF90CF90BF90AF909F908F907F9062
:101650006F905F904F9008954CE1CDCF0E94EF09BD
:101660000E94350A8091950290E008950E94EF094A
:101670000E94350A8091960290E0089585ED80934E
:10168000BC008091BC0084FDFCCF1092F402089550
:1016900020915502260F3327331F21323105ECF4F8
:1016A0002091F402FC0190E080E0243069F082E0B7
:1016B0000895A09155022191AC014B5C5D4FA40FA0
:1016C000B52FB11D2C930196861798F38091550282
:1016D000680F6093550280E0089581E008950895B1
:1016E000E091C9028091C802E81730F4F0E0EB5EA7
:1016F000FD4F808190E008958FEF9FEF08959091C6
:10170000C9028091C8022FEF3FEF981748F4E92FE4
:10171000F0E0EB5EFD4F208130E09F5F9093C902C7
:10172000C90108958091C8029091C902891B990B43
:101730000895CF92DF92EF92FF920F931F93CF9372
:10174000DF937C01CB018A012091F502222389F0ED
:10175000EB016B01C40ED51ECC15DD0569F0699156
:10176000D701ED91FC910190F081E02DC701099521
:10177000F3CF642F0E94480BC801DF91CF911F91D6
:101780000F91FF90EF90DF90CF900895CF93DF936C
:101790001F92CDB7DEB769832091F5022223F9F0BD
:1017A00020911803203258F021E030E0FC0133830F
:1017B000228390E080E00F90DF91CF910895809197
:1017C000F602E82FF0E0E950FD4F998190838F5F9A
:1017D0008093F6028093180381E090E0ECCF61E003
:1017E000CE0101960E94480BF7CFFC01248131E025
:1017F0003093F502209317031092F602109218030B
:101800008385682B86EB93E00E94C60B0C943C0604
:1018100090E080E008950F931F93CF938B01E82F02
:10182000F0E0E657FE4FC08161E08C2F0E942D084A
:1018300088EE93E0089FB001099F700D189F700D0E
:101840001124072E000C880B990B0E94E30860E01E
:101850008C2FCF911F910F910C942D086AEA74E0A0
:1018600089EF93E00C94AA0667EA74E089EF93E0AD
:101870000C94AA0662EA74E089EF93E00C94AA063D
:1018800097FF02C088E59BE1BC01990F880B990B7B
:101890000E946D302CE53FE842E450E40E94613242
:1018A0009B01AC0160E078EA8EE895E40E94F43197
:1018B0000E94D332611580E1780714F06FEF7FE06A
:1018C000CB0177FF02C090E080E0089510929C0267
:1018D00010929D0210929E0210929F0228EE33E019
:1018E000E0E4E0937C0080917A00806480937A0049
:1018F00080917A0086FDFCCF9091780080917900EC
:10190000892798278927092E000CAA0BBB0B409129
:101910009C0250919D0260919E0270919F02840FE3
:10192000951FA61FB71F80939C0290939D02A093C2
:101930009E02B0939F02A8952150310991F66091C3
:101940009C0270919D0280919E0290919F020E9444
:101950006D3020E030E048EC52E40E94613220E03B
:1019600030E040E05FE30E94F5310E94D3326093A3
:101970009C0270939D0280939E0290939F02089513
:10198000CF92DF92EF92FF920E9416096B017C01C9
:101990000E9416096C197D098E099F09683E7340E3
:1019A0008105910558F489E193E00E942C07892B69
:1019B00079F389E193E00E940A07E6CFFF90EF9068
:1019C000DF90CF900895CF9388E00E940408C2E092
:1019D000892B09F0C0E087E00E940408892B09F4F4
:1019E000C3E084E00E940408892B61F0CC2321F03D
:1019F000809110028C1740F4C09310028C2F90E05D
:101A0000CF910895C5E0F4CF90E080E0F9CF0F9337
:101A10001F932091080130910901C90160E177E22B
:101A20000E9413338B0170935B0160935A01C901CB
:101A300064E670E00E9413334CE94003C001419F0B
:101A4000900D1124680F791F7093BD026093BC0242
:101A5000E0EFF8ED0E9FC0010F9F900D1E9F900DBF
:101A60001124820F931F46039001479F300D1124CC
:101A7000820F931F9093BB028093BA021F910F9124
:101A80000895FF920F931F93CF93DF93EC0108EB20
:101A900010E0F801F0808CE080838091C20391E037
:101AA0009093F502809317031092F6021092180398
:101AB00060E486EB93E00E94C60BBE0184E076955D
:101AC00067958A95E1F786EB93E00E94C60BBE010D
:101AD00094E0660F771F9A95E1F786EB93E00E94FA
:101AE000C60B0E943C06F801F082DF91CF911F9156
:101AF0000F91FF9008950F931F93CF938C01C62FE2
:101B00000E94F50B6C2F6460C8010E94F50B6C2FCE
:101B10006B7FC8010E94F50B83EC90E00197F1F711
:101B2000CF911F910F9108950F931F93CF93DF9340
:101B30008C01D62FC42F607F642B0E947B0D80E127
:101B4000D89FB00111246C2BC801DF91CF911F9158
:101B50000F910C947B0DCF93DF93CDB7DEB7289711
:101B60000FB6F894DEBF0FBECDBF98E0E6E7F1E018
:101B7000DE01119601900D929A95E1F79091020481
:101B8000961708F46FEF262F30E0220F331F41E045
:101B900050E04C0F5D1F240F351FF9016081680F65
:101BA000606840E089EF93E028960FB6F894DEBFB6
:101BB0000FBECDBFDF91CF910C94940D41E00E94F8
:101BC000940D81E090E0089540E061E00E94940D62
:101BD0008BE39FE10197F1F708950F931F93CF9344
:101BE000DF93EC010E945B081D828985823010F032
:101BF00098E09D839A85992329F0813019F48D818D
:101C000084608D8362E370E080E090E00E94E308EE
:101C10006B85CE010E94F50B68EE73E080E090E0EA
:101C20000E94E30860E3CE010E947B0D0BE416E402
:101C3000C8010197F1F760E3CE010E947B0DC80156
:101C40000197F1F760E3CE010E947B0D83E592E0FE
:101C50000197F1F760E2CE010E947B0D6D81606219
:101C600040E0CE010E94940D84E08E8340E06CE061
:101C7000CE010E94940DCE010E94E40D82E08F837C
:101C800040E066E0CE010E94940D40E062E0CE01AB
:101C90000E94940D8BE39FE10197F1F7DF91CF91C3
:101CA0001F910F9108958F929F92AF92BF92CF9202
:101CB000DF92EF92FF920F931F93CF93DF93FC017C
:101CC00001900020E9F731978F01081B190B7C0167
:101CD000D0E0C0E0A9F430E020E081E0232B09F05F
:101CE00080E0DF91CF911F910F91FF90EF90DF90F7
:101CF000CF90BF90AF909F908F900895C1E0D0E0BB
:101D00000E94220997FD3AC0F701EC0FFD1F2081C8
:101D1000022E000C330B8217930759F1209781F3A1
:101D20004F01AE012197D4012E914D01022E000CDE
:101D3000330B2817390719F0209799F7E1CF20972F
:101D4000E9F2B7016F01CC1ADD0A30E020E0DB01D7
:101D5000AD90BD01D601BD906D01AB1005C02F5FE8
:101D60003F4F2C173D0798F3C217D307D1F6EA016E
:101D7000C7CF21960C171D0719F6ADCF2FEF3FEFF8
:101D8000ACCFFB0101900020E9F73197AF01461B72
:101D9000570BDC01ED91FC910280F381E02D099459
:101DA00060EC71E089E193E00C94C10ECF93DF9376
:101DB000BC0189E193E00E94AA06EC010E94D00ECA
:101DC0008C0F9D1FDF91CF9108958F929F92AF92BC
:101DD000BF92EF92FF920F931F93CF93DF93CDB7F4
:101DE000DEB7A1970FB6F894DEBF0FBECDBF7C0162
:101DF000FA01CB0119A2223008F42AE08E010F5D0E
:101E00001F4F822E912CB12CA12CBF01A501940152
:101E10000E942733F901CA016A300CF5605DD801D0
:101E20006E938D01232B242B252B79F790E080E0F6
:101E3000109721F0BD01C7010E94C10EA1960FB6F7
:101E4000F894DEBF0FBECDBFDF91CF911F910F91F0
:101E5000FF90EF90BF90AF909F908F900895695C36
:101E6000DECFCF92DF92EF92FF920F931F93CF932B
:101E7000DF936B01770FEE08FF08F7FE1FC0EC0140
:101E8000E881F9810190F081E02D6DE209958C01E6
:101E900044275527BA014C195D096E097F092AE0CC
:101EA000CE010E94E50E800F911FDF91CF911F910F
:101EB0000F91FF90EF90DF90CF9008952AE0B70147
:101EC000A601DF91CF911F910F91FF90EF90DF90CE
:101ED000CF900C94E50E4F925F926F927F928F920B
:101EE0009F92AF92BF92CF92DF92EF92FF92CF93E9
:101EF000DF9300D000D01F92CDB7DEB797FD54C05E
:101F00004D832B013C01D12CC12C812C912C5401EF
:101F10000D2C000CEE08FF08C414D504E604F704E9
:101F20000CF042C00E94160969837A838B839C83DC
:101F300061E08BE00E94AB0DC301B2016C197D0919
:101F40008E099F092AE030E040E050E00E944933CA
:101F5000B90189EF93E00E94310F63E874E089EFE3
:101F600093E00E94AA060E94160929813A814B81BA
:101F70005C81621B730B840B950B860E971EA81E4B
:101F8000B91EC501B40124E630E040E050E00E94F3
:101F9000273369013D81311102C0A895B9CF80E195
:101FA0000E940408892BC9F30F900F900F900F9097
:101FB0000F90DF91CF91FF90EF90DF90CF90BF9087
:101FC000AF909F908F907F906F905F904F9008950B
:101FD0004F925F926F927F928F929F92AF92BF9239
:101FE000CF92DF92EF92FF920F931F93CF936B01EB
:101FF0007C01742EAC019B010E940E3363EC71E0F6
:10200000811126C046015701E894B7F82FEF3FEF42
:102010004FE75FE7C501B4010E940E3381110CC088
:102020002FEF3FEF4FE75FE7C501B4010E94663035
:1020300067EC71E0181664F02FEF3FEF4FE75FE4B5
:10204000C701B6010E9409331816ACF46BEC71E0BD
:1020500089EF93E0CF911F910F91FF90EF90DF9068
:10206000CF90BF90AF909F908F907F906F905F9038
:102070004F900C94C10E2FEF3FEF4FE75FECC7017D
:10208000B6010E94663087FDE1CF20E030E0A90173
:10209000C701B6010E94663010E000E087FF0CC067
:1020A00041E06DE289EF93E00E94940DF7FAF0941D
:1020B000F7F8F09401E010E0C0E060E070E080E04C
:1020C0009FE37C1641F020E030E040E251E40E94C2
:1020D0006132CF5FF6CFA70196010E94F5314B0127
:1020E0005C010E94DA322B013C012AE0BC01A20112
:1020F00089EF93E00E94E50E080F191FCC23D9F158
:10210000C301B2010E946B309B01AC01C501B40157
:102110000E94F4314B015C0141E06EE289EF93E0F3
:102120000E94940D0F5F1F4FC15028F120E030E056
:1021300040E251E4C501B4010E94CC302B013C01C6
:102140000E94DA324B01B12CA12C2AE0B501A40186
:1021500089EF93E00E94E50E080F191FC501B40135
:102160000E946B309B01AC01C301B2010E94F431AB
:102170004B015C01D9CFC801CF911F910F91FF9006
:10218000EF90DF90CF90BF90AF909F908F907F9017
:102190006F905F904F9008952F923F924F925F9271
:1021A0006F927F928F929F92AF92BF92CF92DF9267
:1021B000EF92FF920F931F93CF93DF9300D000D045
:1021C000CDB7DEB75C011B014A01C22E7801209118
:1021D0006E0130916F013C832B830E94E30C8C01D4
:1021E00084E62B813C81829FA001839F500D1124A6
:1021F0005A834983AB82BC8258EC452E512C612C0A
:10220000712C0530110509F420C20E94E30C8C01E9
:102210008330910599F54B815C814F5F5F4F5C8303
:102220004B8396E0E916F10409F073C089819A8125
:102230006B817C810E94133370936F0160936E01F8
:102240006E3171051CF52B813C81215031093C8395
:102250002B8337E0E316F10409F50230110509F08C
:10226000BAC08DEE93E00E94E40D6AE17CE081EE5D
:1022700093E00E94AA061C821B8210C0029789F676
:102280008B819C8101979C838B83CBCF4B815C811D
:102290004F5F5F4F6D3271400CF0ADC00E94160968
:1022A000A30192010E942733C90163E070E00E94FC
:1022B00013335C01892B19F405301105A9F4E114DD
:1022C000F10409F09BC061E08C2D0E94AB0D6B8185
:1022D0007C8189EF93E00E94310FAB2809F091CF08
:1022E0000530110509F48DCFE114F10409F064C142
:1022F00061E08C2D0E94AB0D4B815C8168EA7BE034
:102300004A3051050CF07DCF89EF93E00E94AA0678
:1023100078CF8B819C812816390614F43C822B825D
:102320002B813C812815390514F49C828B8231E085
:10233000E316F10481F461E070E080E00330110500
:1023400039F061E070E081E00230110509F0A6CFBC
:102350000E940B0CA3CF42E0E416F10471F461E09B
:1023600070E082E00330110599F30230110509F0A5
:1023700095CF61E070E083E0EBCF54E0E516F10427
:1023800009F067CF0330110589F480E197E20E94DC
:10239000400C0E94410D64EF71E080E090E00E94EB
:1023A000E30883E090E09C838B8378CF02301105B3
:1023B00009F074CF88E59BE10E94400C0E94410D1A
:1023C00064EF71E080E090E00E94E30822E030E0FA
:1023D0003C832B8363CF0330110509F05FCF81EE7F
:1023E00093E00E94E40D64E17CE08DEE93E00E94B6
:1023F000AA0641E050E05C834B8350CF54E0E516E1
:10240000F104B9F461E08BE00E94AB0D8B819C81FB
:102410006FE07CE0029741F02B813C816AE07CE038
:102420002330310509F059CF89EF93E00E94AA06C5
:1024300054CF33E0E316F10409F083C060E080E09C
:102440000E94AB0D69EF7BE089EF93E00E94AA0642
:102450004B815C814230510509F069C0053011059E
:1024600009F03BCF61E080E00E94AB0D68EE7BE0BD
:1024700089EF93E00E94AA0661E083E00E942D08A4
:1024800061E08BE00E942D0861E089E00E942D0848
:1024900040E068EC72E380E090E00E946B0F60E047
:1024A00083E00E942D0860E08BE00E942D0860E030
:1024B00089E00E942D0844E0D42E61E080E00E9473
:1024C000AB0D67ED7BE089EF93E00E94AA0661E027
:1024D00085E00E942D0841E068EC72E380E090E026
:1024E0000E946B0F60E085E00E942D0861E083E0B0
:1024F0000E942D0880916C0190916D0129E1289F27
:10250000B001299F700D1124072E000C880B990B28
:1025100040E00E946B0F60E083E00E942D0881E0A4
:102520008093CD021C821B8205E010E0D6CE8B8109
:102530009C81019709F0D1CE0530110509F0CDCE6F
:10254000BCCF35E0E316F10409F0CAC061E080E0D9
:102550000E94AB0D66EC7BE089EF93E00E94AA0637
:102560004B815C814130510509F0B7CE0530110532
:10257000F9F461E08D2D0E94AB0D61EC7BE089EFF9
:1025800093E00E94AA0661E08CE00E942D08609111
:102590006E0170916F01072E000C880B990B40E0C3
:1025A0000E946B0F60E08CE00E942D0804E010E0B8
:1025B000AB2809F026CE39C053E0E516F104D1F47A
:1025C0008B819C81D12C009731F03AE0D32E01977A
:1025D00011F424E0D22E60E08D2D0E94AB0D0E94FC
:1025E0003A0C2B813C812230310509F00ACE0E9441
:1025F000340C07CE61E08BE034E0E316F104E9F03F
:1026000085E0E816F10461F096E0E916F10409F0BE
:10261000F8CD61E080E00E94AB0D6EEA7BE074CE05
:102620004B815C81D12C452B31F08B819C810197B2
:1026300049F09CE0D92E61E08D2D0E94AB0D0E94E7
:102640003A0CDFCD85E0D82EF6CF27E0E216F10474
:1026500071F58CE04B815C81849FF001859FF00DCA
:102660001124EF51FC4F828193819093FC0380935E
:10267000FB0384818093FD0385818093FE03868123
:102680008093FF03878180930004808580930104F9
:1026900081858093020482858093030483858093DF
:1026A00004046AEA7BE089EF93E00E94AA068B812A
:1026B0009C810F900F900F900F90DF91CF911F9101
:1026C0000F91FF90EF90DF90CF90BF90AF909F90D1
:1026D0008F907F906F905F904F903F902F900895D4
:1026E00056E0E516F10409F0F8CD61E080E00E94C3
:1026F000AB0D2B813C81B901330F880B990B0E94E4
:102700006D3020E030E040E251E40E94613241E06F
:102710000E94E80F6CEB7BE089EF93E00E94AA0631
:1027200060916E0170916F01072E000C880B990B60
:102730000E946D3020E030E040E251E40E946132BE
:1027400041E00E94E80F66EB7BE06ECECF93DF9313
:10275000EC010A9734F46FEC71E089EF93E00E948A
:10276000C10EBE0189EF93E0DF91CF910C94310F40
:10277000CF93DF93C0915801D091590160E080E080
:102780000E94AB0D6EE974E089EF93E00E94AA0607
:102790008091B802882321F0C091AA02D091AB02A7
:1027A0001C161D06A4F4BE010D2E000C880B990BFF
:1027B0000E946D3020E030E04AE754E40E9461322C
:1027C000C031D7420CF03FC042E00E94E80F609158
:1027D0009C0270919D0280919E0290919F0225E043
:1027E00030E040E050E00E944933E9018091AD02C1
:1027F0009091AE02892B29F42536310514F0C4E6F8
:10280000D0E061E080E00E94AB0D6AE974E089EFFE
:1028100093E00E94AA06BE0189EF93E00E94310F67
:102820000E94340C61E088E00E94AB0D909155014C
:1028300080915401992389F066E974E0811111C0F7
:102840006EE874E00EC041E00E94E80F68EA7BE0A9
:1028500089EF93E00E94AA06BACF62E974E0811181
:10286000EFCF89EF93E00E94AA0661E08BE00E941F
:10287000AB0D0E94EF090E94350A8091970290E00B
:102880000E94A61361ED71E089EF93E00E94C10EF2
:102890000E94360BDF91CF910C94A6132F923F929A
:1028A0004F925F926F927F928F929F92AF92BF9260
:1028B000CF92DF92EF92FF920F931F93CF93DF930C
:1028C000342E6B017C01F7FE03C0C12CD12C7601A4
:1028D000D0E0C0E004EB10E022242394812C912C62
:1028E0005401CE010D2E000CAA0BBB0B8C159D05BF
:1028F000AE05BF050CF03FC00E9416092B013C013C
:102900000E94660C0E94B8130C171D0744F4109225
:10291000040460E089EF93E00E94F50B212C0E94F3
:10292000E30C892B81F0332071F0211021C088E065
:102930008093040460E089EF93E00E94F50B8E0120
:102940000C541F4F232C0E9416096419750986091F
:102950009709860E971EA81EB91EC501B40128EE60
:1029600033E040E050E00E942733E901A895B9CF59
:1029700081E08093BE0288E08093040460E089EFE8
:1029800093E0DF91CF911F910F91FF90EF90DF9037
:10299000CF90BF90AF909F908F907F906F905F90FF
:1029A0004F903F902F900C94F50BCF92DF92EF92C7
:1029B000FF92CF93DF93EC0188E19EE00FB6F8948D
:1029C000A895809360000FBE9093600060E088E05F
:1029D0000E94AB0D69E874E089EF93E00E94AA06BB
:1029E000BE01DD0F880B990B40E00E944E1410923F
:1029F0001102109212021092130210921402C4E6F5
:102A0000D0E00E94660C8091110290911202A09178
:102A10001302B091140240919C0250919D0260916A
:102A20009E0270919F02840F951FA61FB71F80936F
:102A3000110290931202A0931302B0931402A8956E
:102A40002197F9F620911102309112024091130260
:102A5000509114028091A0029091A102A091A20233
:102A6000B091A302281B390B4A0B5B0BA2ECBBE015
:102A70000E94A3312CEA37E640E050E00E9449333F
:102A8000B901330F880B990B0E946D3026E636E6AC
:102A900046EA5FE30E94CC306B017C0160915601F5
:102AA00070915701072E000C880B990B0E946D3016
:102AB0009B01AC01C701B6010E94F5310E94D332DF
:102AC0007093B4026093B3020E94B81360E08DE08B
:102AD0000E942D080FB6F894A89580916000886137
:102AE00080936000109260000FBEDF91CF91FF9045
:102AF000EF90DF90CF900895EF92FF920F931F9386
:102B0000CF937C018B01C42F88E19EE00FB6F8942F
:102B1000A895809360000FBE9093600060E088E00D
:102B20000E94AB0DB70189EF93E00E949C06EC2F49
:102B3000F0E0E657FE4FC08161E08C2F0E942D0827
:102B4000B801110F880B990B40E00E944E1460E011
:102B50008C2F0E942D080FB6F894A89580916000E4
:102B6000886180936000109260000FBE68EE73E091
:102B700080E090E0CF911F910F91FF90EF900C9427
:102B8000E308EF92FF920F931F93CF93DF93CDB79C
:102B9000DEB72A970FB6F894DEBF0FBECDBF7B011C
:102BA0008E010F5F1F4F2AE0F80111922A95E9F775
:102BB000BC01C8010E94913528EE33E0E29EC001BD
:102BC000E39E900DF29E900D1124092E000CAA0B8D
:102BD000BB0B80931D0390931E03A0931F03B09320
:102BE0002003C8010E94530E882381F081E0809366
:102BF000CC022A960FB6F894DEBF0FBECDBFDF9190
:102C0000CF911F910F91FF90EF9008951092CC02F9
:102C1000F0CFCF93DF93EC018091C3039091C40375
:102C20000097E9F06881798161157105B1F04091F3
:102C3000C5035091C6032C813D814217530768F0AC
:102C40000E9491358C819D819093C8038093C70326
:102C50001D821C82DF91CF9108950E942D348881BE
:102C600099819093C4038093C3038A819B8190933D
:102C7000C6038093C5038C819D819093C803809384
:102C8000C703198218821B821A82E2CFCF93DF9387
:102C9000EC0188819981009711F00E942D341982EE
:102CA00018821D821C821B821A82DF91CF910895A7
:102CB000FC0180819181009711F00C942D340895CE
:102CC000FC0180819181009711F00C94AC2F60E0A1
:102CD00070E0CB0108950F931F93CF93DF93EC0126
:102CE00088819981009759F02A813B8126173707FF
:102CF00030F081E0DF91CF911F910F9108958B010A
:102D00006F5F7F4F0E94B634009759F09983888394
:102D10001B830A832C813D81232B59F7FC011082F0
:102D2000E8CF80E0E7CFEF92FF920F931F93CF930E
:102D3000DF93EC017B01CB010E94DA2F0097A9F011
:102D40000C811D81080F191FB801CE010E946B165E
:102D5000882361F0288139818C819D81B701820FA0
:102D6000931F0E94D32F1D830C8381E0DF91CF91AD
:102D70001F910F91FF90EF900895EF92FF920F93A4
:102D80001F93CF93DF936115710541F480E0DF91CC
:102D9000CF911F910F91FF90EF900895411551052C
:102DA000B1F07B01EC010C811D81040F151FB801EE
:102DB0000E946B16882351F3288139818C819D8173
:102DC000B701820F931F0E9491351D830C8381E010
:102DD000DECF0F931F93CF93DF9300D000D000D0AE
:102DE0001F92CDB7DEB74AE08E010F5F1F4FB801CB
:102DF0000E943C30F80101900020E9F73197AF01C3
:102E0000401B510BB80185ED93E00E94BD1627963B
:102E10000FB6F894DEBF0FBECDBFDF91CF911F91EB
:102E20000F910895FC01448155816081718189EC85
:102E300093E00C94BD16EF92FF920F931F93CF93E4
:102E4000DF93CDB7DEB728970FB6F894DEBF0FBE7D
:102E5000CDBF7C01CB014AE08E010F5F1F4FB8014F
:102E60000E94E32FF80101900020E9F73197AF01AC
:102E7000401B510BB801C7010E94BD1628960FB622
:102E8000F894DEBF0FBECDBFDF91CF911F910F91A0
:102E9000FF90EF900895FB0101900020E9F7319732
:102EA000AF01461B570B0C94BD16EF92FF920F9388
:102EB0001F93CF93DF93EC018B01CB010E94DA2F9C
:102EC0007C01BC01CE010E946B1681110BC0CE01AA
:102ED0000E944616CE01DF91CF911F910F91FF9076
:102EE000EF900895FD82EC82B801888199810E945B
:102EF000D32FF0CFFC01118210821382128215822F
:102F000014820C945517CF92DF92EF92FF920F9399
:102F10001F93CF93DF93CDB7DEB729970FB6F89401
:102F2000DEBF0FBECDBFC090D701D090D801E090DA
:102F3000D901CF82D886E98610E000E0C982DA8222
:102F4000EB8288E690E00E94D60E62E070E0CE014F
:102F500001960E94C11560ED77E080E090E00E944C
:102F6000E30888EA90E00E94D60E62E070E0CE01AD
:102F700007960E94C1158CE990E00E94D60E62E08F
:102F800070E0CE0107960E94C115F090CC0261E975
:102F900070E0CE0101960E947A176FE271E0CE01D7
:102FA00001960E944B1763ED71E0CE0101960E94DD
:102FB0004B176EE071E0CE0101960E944B1765ED54
:102FC00071E0CE0101960E944B17BE016F5F7F4FEB
:102FD00089E193E00E949C060E94D00E64E170E0BB
:102FE000CE0107960E94C1158091CC028823B1F0D2
:102FF00081E08093CB02CE0101960E94581629965B
:103000000FB6F894DEBF0FBECDBFDF91CF911F91F9
:103010000F91FF90EF90DF90CF9008951092CB0228
:1030200061E080E0F1102AC00E94AB0D60E870E022
:1030300089EF93E00E94AA0660ED77E080E090E0DF
:103040000E94E308CE0101960E9458160130110536
:10305000B1F261E080E00E94AB0D64EB70E089EFBB
:1030600093E00E94AA0661E070E089EF93E00E947D
:10307000310F0E943A0C01E010E060CF0E94AB0DCE
:103080006FE670E089EF93E00E94AA0668EE73E0B5
:1030900080E090E0D5CF8F929F92AF92BF92CF9277
:1030A000DF92EF92FF920F931F93CF93DF93CDB7F1
:1030B000DEB72C970FB6F894DEBF0FBECDBFF82E4B
:1030C0008EE390E09C878B878091D7019091D80107
:1030D000A091D9018E839F83A88710E09AE3C92E1F
:1030E000D12C21E3E22E38E8832E33E1932EA12C5C
:1030F000B12C01E011111FC0F1101DC08EE79BE043
:103100000E94D60E0E94C00C1F5F133099F7809169
:10311000CA0281116BC061E00E94AB0D6DE67BE0DD
:1031200089EF93E00E94AA0660ED77E080E090E0EE
:103130000E94E30845C0DA86C986E9821A8284E5DE
:103140009BE00E94D60E80921D0390921E03A092D7
:103150001F03B0922003CE0109960E94530E8823CC
:1031600039F061E070E0CE0101960E9454091A82A4
:103170008981833389F04CF4813359F0823399F19A
:103180001092CA021092CC020DC0843361F18533D3
:10319000B9F71092CB02F4CF0093CB020093CA028E
:1031A0000093CC028091CC028111B1CF8091CB02EF
:1031B000811102C00E9483178091CB0281119ECFA2
:1031C0002C960FB6F894DEBF0FBECDBFDF91CF9126
:1031D0001F910F91FF90EF90DF90CF90BF90AF9035
:1031E0009F908F9008950093CB02CACF89ECE82E70
:1031F00083E0F82E10E064E170E080E090E00E944F
:10320000E30861E67BE089E193E00E94AA06F7010A
:103210004481558170E060E02AE089E193E00E94FA
:10322000E50E0E94D00E65E070E0CE010B960E9484
:10323000C1158091CC02882329F0B70189E193E080
:103240000E949C06133031F065E070E0CE010696D6
:103250000E94C1158091CC02882309F4B1CF1F5F71
:10326000F6E0EF0EF11C143031F6AACFEF92FF9288
:103270000F931F93CF93DF93EC017B011982188288
:103280001B821A821D821C82FB0101900020E9F73B
:1032900031978F01061B170BB8010E946B16811125
:1032A00009C0CE01DF91CF911F910F91FF90EF9058
:1032B0000C9446161D830C83B70188819981DF9198
:1032C000CF911F910F91FF90EF900C949135EF9259
:1032D000FF920F931F93CF93DF93CDB7DEB7AC97D9
:1032E0000FB6F894DEBF0FBECDBF8091E50190917F
:1032F000E601A091E7018AA79BA7ACA7198288E8FD
:1033000093E1A0E0B0E080931D0390931E03A0938F
:103310001F03B0932003CE018A960E94530E8111A1
:103320000FC01092CA02AC960FB6F894DEBF0FBE63
:10333000CDBFDF91CF911F910F91FF90EF90089536
:103340004AE050E0BE016F5F7F4F89E20E94710941
:10335000E1E0F0E0EC0FFD1FE80FF91F108200978D
:1033600001F30A97F1F281E08093CA028093CB02C5
:10337000BE016F5F7F4FCE0184960E943619CE0149
:1033800084960E940916CE0184960E9458160091D8
:10339000C7031091C8030115110509F458C0E09046
:1033A000C303F090C4036AED71E0C7010E94883541
:1033B000892B41F06DED71E0C7010E948835892BA2
:1033C00009F045C01092CC026DED71E08091C3030D
:1033D0009091C4030E948835892B09F0A4CFCE01B7
:1033E0008A960E94530E882381F040E250E0BE018D
:1033F0006F5F7F4F89E20E94710921E030E02C0F5E
:103400003D1F820F931FFC011082BE016F5F7F4F33
:10341000CE0184960E943619CE0184960E94091628
:10342000CE0184960E94581661E080E00E94AB0DA8
:1034300063EC73E089EF93E00E949C060E94340CD9
:1034400068E873E180E090E00E94E3086CCF81E0DF
:103450008093CC02012B09F466CFB6CFAF92BF9216
:10346000CF92DF92EF92FF920F931F93CF93DF9350
:103470006C018B0180E2A82EF8018081882309F479
:103480003FC08B3239F4F601A0820F5F1F4FC60197
:1034900001966C01F801B080C60101967C0195E2AD
:1034A000B91216C0C181CC2399F0D281DD2381F0FD
:1034B0008C2F0C2E000C990B0E947335892B41F038
:1034C0008D2F0D2E000C990B0E947335892B29F539
:1034D0000F5F1F4FF601B0820DC0C052C753D136E7
:1034E0005CF0D052D753C295C07FCD0FF601C08398
:1034F0000D5F1F4F6701C0CFD134A4F7D053F3CF76
:10350000F6011082DF91CF911F910F91FF90EF9004
:10351000DF90CF90BF90AF900895C136F4F6C134DC
:10352000ECF6C053DCCFDF92EF92FF920F931F9324
:10353000CF93DF93CDB7DEB7CF56D1090FB6F8944E
:10354000DEBF0FBECDBF80910A0190910B019A831F
:1035500089838091AD029091AE029C838B83809190
:103560005001909151019E838D838091A40290918E
:10357000A50298878F8380916E0190916F019A8741
:10358000898780915601909157019C878B87809104
:103590005201909153019E878D8780915C0190919B
:1035A0005D01988B8F8780916C0190916D019A8B52
:1035B000898B80910801909109019C8B8B8B809164
:1035C0000C0190910D019E8B8D8B80910601909145
:1035D0000701988F8F8B80919302909194029A8F1C
:1035E000898F60E071E0CE014B960E9491356FE2C9
:1035F00071E0CE0181960E9491356EE071E0CE01BE
:103600008E5B9F4F0E9491356EE571E0CE018D5922
:103610009F4F0E949135CE0101967C0110E000E0A1
:10362000F701D1907F01C8010E948D31D81621F099
:103630006D2DC8010E9495310F5F1F4F0F36110588
:1036400079F7C159DF4F0FB6F894DEBF0FBECDBF7B
:10365000DF91CF911F910F91FF90EF90DF90089530
:103660002F923F924F925F926F927F928F929F9292
:10367000AF92BF92CF92DF92EF92FF920F931F9380
:10368000CF93DF93CDB7DEB7E9970FB6F894DEBFDF
:103690000FBECDBF8091D7019091D801A091D901E3
:1036A0008AAB9BABACAB6EE571E0CE0186960E9417
:1036B000361968E674E0CE018C960E947A176BE4A6
:1036C00074E08FEC93E00E94551760E374E08FEC98
:1036D00093E00E94551789EF93E00E94E40D60E0AB
:1036E00080E00E94AB0D67E274E089EF93E00E94F6
:1036F000AA0661E080E00E94AB0D66E174E089EF0C
:1037000093E00E94AA0660E084E00E94AB0D0E9454
:103710002E0C65E074E089EC93E00E94551769EF88
:1037200073E089EC93E00E94931660EE73E085ED00
:1037300093E00E9455176DED73E08BED93E00E94CE
:10374000551722E029AF98E8492E93E1592E612CB4
:10375000712C11E024E6222E312C80E00E944B18BF
:1037600087E0E8EEF1E0DE015F9601900D928A9528
:10377000E1F7E0E2F0E0F8AFEFAB8AE390E09EAB78
:103780008DAB198240921D0350921E0360921F035D
:1037900070922003CE014F960E94530E811146C0B5
:1037A0001092CA028091CB02882339F08091CA021C
:1037B000811103C099AD9130B1F580910A019091CA
:1037C0000B01019709F0E4C081ED93E00E94D60E51
:1037D00062E070E0CE01C2960E94C11588EC93E0D1
:1037E0000E94D60ECE018C960E945816CE01869667
:1037F0000E945816E9960FB6F894DEBF0FBECDBFF3
:10380000DF91CF911F910F91FF90EF90DF90CF90BC
:10381000BF90AF909F908F907F906F905F904F90F0
:103820003F902F90089581E089AF97CF1093CA02FF
:103830001093CB0263E070E0CE0101960E94540920
:103840001C82CE01C7960E94530ECE01C7960E94DD
:10385000530ECE01C7960E94530ECE01C7960E940A
:10386000530E62E070E0CE0101960E9454091B8263
:10387000CE0101960E948E2FF82ECE01C5960E9491
:10388000530E62E070E0CE0101960E9454091B8243
:10389000CE0101960E948E2F082FCE01C5960E9460
:1038A000530E62E070E0CE0101960E9454091B8223
:1038B000CE0101960E948E2F482F8FE280939B02AB
:1038C00010939A0210939902F09297020093960235
:1038D0004093950222EB37E080E8882E84E7982E0B
:1038E00088E5A82EBA2CC90183709927892BA1F4E9
:1038F000C901B1010E941333892B39F4C90160E970
:1039000071E00E941333892B39F4F0E88F0EF1E552
:103910009F1EF1E0AF1EB11C2F5F3F4F213E87E09D
:10392000380709F72F2D30E0A0E1BEE00E94E53115
:103930006B017C01202F30E0ACE3B0E00E94E53168
:103940006C0D7D1D8E1D9F1D640F711D811D911DB0
:10395000680D791D8A1D9B1D0E94CA090E94EF09EE
:1039600020910C0130910D01E0E1FEE02E9FA001BD
:103970002F9F500D3E9F500D11246A01550FEE08E8
:10398000FF086C0D7D1D8E1D9F1D0E94CA090ACF68
:1039900060E085E00E94AB0D0E942E0C68EB73E0A6
:1039A00089EC93E00E945517CE0186960E9412176B
:1039B00061EA73E089EC93E00E94931665E973E095
:1039C00089EC93E00E94931681E00E944B180E94BC
:1039D00067198091CB02882349F08091CA02811136
:1039E00005C081E00E944B180E9467198091CC02AB
:1039F000882309F4B6C260E086E00E94AB0D0E9405
:103A00002E0C64E873E089EC93E00E945517CE0118
:103A100086960E94121766E773E089EC93E00E9495
:103A200093166AE673E089EC93E00E9493166EE5C4
:103A300073E08BED93E00E94551760E071E08BED31
:103A400093E00E944B1769E573E08BED93E00E94D1
:103A5000931668E473E085ED93E00E94551780911A
:103A6000DF039091E0030E94E9166BE273E085EDBD
:103A700093E00E94931681E00E944B180E94671900
:103A80008091CB02882349F08091CA02811105C040
:103A900081E00E944B180E9467198091CC02882314
:103AA00009F4A0CE8091CA02882309F49BCE60E07D
:103AB00087E00E94AB0D0E942E0C6BE173E089EC55
:103AC00093E00E945517CE0186960E94121763E17B
:103AD00073E089EC93E00E94931667E073E089EC51
:103AE00093E00E9493166EEE72E085ED93E00E94E3
:103AF00055176BEE72E08BED93E00E94551781E055
:103B00000E944B180E9467198091CB02882349F0CC
:103B10008091CA02811105C081E00E944B180E9469
:103B200067198091CC02882309F45CCE8091CA0287
:103B3000882309F457CE83EC93E00E946016161692
:103B4000170624F47093530160935201809152013F
:103B5000909153018E3C944009F0C9C281E090E0FD
:103B60009093AE028093AD0260E088E00E94AB0DBE
:103B70000E942E0C6BED72E089EC93E00E945517C9
:103B8000CE0186960E94121762ED72E089EC93E0F6
:103B90000E94931666EC72E089EC93E00E94931603
:103BA00081E00E944B180E9467198091CB02882304
:103BB00049F08091CA02811105C081E00E944B1832
:103BC0000E9467198091CC02882309F40BCE809162
:103BD000CA02882309F406CE83EC93E00E946016A3
:103BE0001616170634F470930901609308010E94B9
:103BF000070D60E089E00E94AB0D0E942E0C66EB81
:103C000072E089EC93E00E945517CE0186960E94DF
:103C100012176DEA72E089EC93E00E94931661EA54
:103C200072E089EC93E00E94931681E00E944B18A9
:103C30000E9467198091CB02882349F08091CA02C3
:103C4000811105C081E00E944B180E946719809184
:103C5000CC02882309F4C6CD8091CA02882309F4D6
:103C6000C1CD83EC93E00E946016161617063CF453
:103C70007093AB026093AA0281E08093B80260E087
:103C80008AE00E94AB0D0E942E0C61E972E089EC83
:103C900093E00E945517CE0186960E94121769E89C
:103CA00072E089EC93E00E9493166DE772E089EC74
:103CB00093E00E94931681E00E944B180E946719BE
:103CC0008091CB02882349F08091CA02811105C0FE
:103CD00081E00E944B180E9467198091CC028823D2
:103CE00009F480CD8091CA02882309F47BCD83EC4E
:103CF00093E00E9460161616170624F47093510183
:103D00006093500160E08BE00E94AB0D0E942E0C8E
:103D10006DE672E089EC93E00E945517CE0186961D
:103D20000E94121765E672E089EC93E00E949316F8
:103D300069E572E089EC93E00E94931681E00E94AD
:103D40004B180E9467198091CB02882349F080911B
:103D5000CA02811105C081E00E944B180E946719B8
:103D60008091CC02882309F43DCD8091CA0288233A
:103D700009F438CD83EC93E00E94601677FD04C00F
:103D80007093A5026093A40260E08CE00E94AB0DEA
:103D90000E942E0C69E472E089EC93E00E945517B2
:103DA000CE0186960E94121764E472E089EC93E0DB
:103DB0000E94931668E372E089EC93E00E949316E8
:103DC00081E00E944B180E9467198091CB028823E2
:103DD00049F08091CA02811105C081E00E944B1810
:103DE0000E9467198091CA02882309F4FBCC60E025
:103DF0008DE00E94AB0D0E942E0C67E272E089EC10
:103E000093E00E945517CE0186960E94121764E136
:103E100072E089EC93E00E94931668E072E08BED0B
:103E200093E00E94551760E071E08BED93E00E94F3
:103E30004B1763E072E08BED93E00E94931662EF04
:103E400071E085ED93E00E9455178091DF0390911A
:103E5000E0030E94E91665ED71E085ED93E00E94B4
:103E6000931681E00E944B180E9467198091CB0243
:103E7000882349F08091CA02811105C081E00E9427
:103E80004B180E9467198091CC02882309F4AACCB0
:103E90008091CA02882309F4A5CC0091C703109130
:103EA000C8030115110509F027C1198260E08EE0F1
:103EB0000E94AB0D0E942E0C64EC71E089EC93E043
:103EC0000E945517CE0186960E94121761EB71E091
:103ED00089EC93E00E94931665EA71E08BED93E024
:103EE0000E945517BE016F5F7F4F8BED93E00E94DC
:103EF0004B1760EA71E08BED93E00E9493166FE838
:103F000071E085ED93E00E9455178091DF03909159
:103F1000E0030E94E91662E771E085ED93E00E94FC
:103F2000931681E00E944B180E9467198091CB0282
:103F3000882349F08091CA02811105C081E00E9466
:103F40004B180E9467198091CA02882309F44ACC51
:103F5000BE016F5F7F4F80E091E00E9491350E942B
:103F6000931A8091AC02882309F4B4C01092AC0279
:103F700060E08FE00E94AB0D0E942E0C61E671E0C4
:103F800089EC93E00E945517CE0186960E94121785
:103F90006BE571E089EC93E00E9493166FE471E0A9
:103FA00089EC93E00E94931663E471E08BED93E05B
:103FB0000E94551760E071E08BED93E00E944B1773
:103FC00065E371E08BED93E00E94931660915801D8
:103FD000709159018BED93E00E941B1768E271E02C
:103FE0008BED93E00E94931668EE73E08BED93E007
:103FF0000E941B176BE171E08BED93E00E9493161A
:104000006091A0027091A1028091A2029091A302FE
:104010002AE030E040E050E00E944933CA01B90193
:104020002AE08E010F5F1F4FA8010E94EE2FF801BA
:1040300001900020E9F73197AF01401B510BB80107
:104040008BED93E00E94BD166EE071E08BED93E086
:104050000E94931660915601709157018BED93E089
:104060000E941B1761E071E08BED93E00E949316B4
:104070006091A6027091A7028BED93E00E941B173E
:104080006DEF70E08BED93E00E9493166CEE70E0A4
:1040900085ED93E00E9455178091DF039091E00336
:1040A0000E94E91664ED70E085ED93E00E9493169E
:1040B00081E00E944B180E9467198091CB028823EF
:1040C00049F08091CA02811105C081E00E944B181D
:1040D0000E94671988EC90E00E94D60E62E070E0C2
:1040E000CE01C2960E94C1158FEB90E079CB109261
:1040F000AE021092AD0238CD0530110510F005E08A
:1041000010E06091C3037091C403A801CE01019631
:104110000E949835E1E0F0E0EC0FFD1FE00FF11F89
:104120001082C4CE1F920F920FB60F9211242F93BC
:104130003F934F935F936F937F938F939F93AF932F
:10414000BF93EF93FF9389E193E00E944C07FF91A7
:10415000EF91BF91AF919F918F917F916F915F91FF
:104160004F913F912F910F900FBE0F901F90189578
:104170001F920F920FB60F9211242F938F939F933C
:10418000EF93FF93E0912903F0912A038081E0915E
:104190002F03F091300382FD1BC090818091320388
:1041A0008F5F8F7320913303821741F0E0913203C8
:1041B000F0E0E75EFC4F958F80933203FF91EF9123
:1041C0009F918F912F910F900FBE0F901F90189578
:1041D0008081F4CF1F920F920FB60F9211242F936C
:1041E0003F938F939F93AF93BF9380918B02909156
:1041F0008C02A0918D02B0918E0230918A0223E050
:10420000230F2D3758F50196A11DB11D20938A0269
:1042100080938B0290938C02A0938D02B0938E02B8
:1042200080918F0290919002A0919102B0919202A0
:104230000196A11DB11D80938F0290939002A093CF
:104240009102B0939202BF91AF919F918F913F9154
:104250002F910F900FBE0F901F90189526E8230FF7
:104260000296A11DB11DD2CF1F920F920FB60F92D1
:1042700011242F933F934F935F936F937F938F936B
:104280009F93AF93BF93EF93FF938091B900887F83
:10429000803609F44AC0F0F5883209F4A7C018F551
:1042A000803109F49BC0B8F4882309F4F9C0883040
:1042B00009F494C0FF91EF91BF91AF919F918F91BD
:1042C0007F916F915F914F913F912F910F900FBE12
:1042D0000F901F901895883109F488C0803251F7EB
:1042E0008093F20214C0803409F49DC040F48033FE
:1042F000B9F38833F9F68093F20285ECB0C08035CB
:1043000009F485C0883509F496C0883499F60E946E
:104310003E0BD0CF883909F48CC038F5883729F0A6
:1043200050F4883611F0803729F683E08093F40248
:104330001092770257C0883809F47BC0803919F091
:10434000803809F0B7CF80917702803208F071C0D1
:10435000E091770281E08E0F809377028091BB001D
:10436000F0E0E95AFD4F80833DC0803B39F0E0F436
:10437000803A09F479C0883A09F09CCF84E08093B0
:10438000F4021092560210925502E091C602F0918A
:10439000C70209958091550281110FC081E0809379
:1043A00055021092350209C0803C09F4A6CF883C22
:1043B00009F4A3CF883B09F07DCFE091560281E05C
:1043C0008E0F80935602F0E0EB5CFD4F808180936E
:1043D000BB00909156028091550229C08091CF0276
:1043E0008093BB0085EC8093BC0064CF9091F10278
:1043F0008091F002981758F5E091F10281E08E0F5C
:104400008093F102F0E0E053FD4F8081E9CFE0912D
:10441000F10281E08E0F8093F1028091BB00F0E009
:10442000E053FD4F80839091F1028091F002981744
:10443000C8F285E8D8CFE091F10281E08E0F809339
:10444000F1028091BB00F0E0E053FD4F808380914A
:10445000F30281115CCF81E08093CE0284EA8093E5
:10446000BC001092F40226CF85EC8093BC00109221
:10447000F40280917702803230F4E0917702F0E02C
:10448000E95AFD4F10826091770270E0E091C4021A
:10449000F091C50287E592E00995109277020ACF64
:1044A0001092F20234CFE9E1F3E01382128288EE37
:1044B00093E0A0E0B0E084839583A683B78324E9EA
:1044C00031E03183208325EC30E03587248724ECEC
:1044D00030E03787268720EC30E0318B208B21ECD1
:1044E00030E0338B228B22EC30E0358B248B26ECB2
:1044F00030E0378B268B118E128E138E148EE6EBE6
:10450000F3E01382128284839583A683B78386EABD
:1045100091E091838083E9EFF3E01382128248EB0C
:1045200051E05183408337E2348320E1208792E0D9
:104530009187128688E08387E1EEF3E0138212828E
:10454000518340833483208791871286838717861F
:104550001686558744873FE3308B248B958B168ACC
:10456000878B62EC71E089EC93E00E94361962EC73
:1045700071E08FEC93E00E94361962EC71E085EDFA
:1045800093E00E94361962EC71E08BED93E00E949B
:10459000361962EC71E083EC93E00C943619CF93FA
:1045A000DF93CDB7DEB7C55AD1090FB6F894DEBF99
:1045B0000FBECDBF789484B5826084BD84B5816020
:1045C00084BD85B5826085BD85B5816085BD8091DE
:1045D0006E00816080936E00109281008091810056
:1045E000826080938100809181008160809381004E
:1045F000809180008160809380008091B100846010
:104600008093B1008091B00081608093B000809170
:104610007A00846080937A0080917A00826080932F
:104620007A0080917A00816080937A0080917A008C
:10463000806880937A001092C1000FB6F894A89514
:1046400080916000886180936000109260000FBECE
:1046500081EE93E00E94ED0D8DEE93E00E94ED0D52
:1046600089EF93E00E94ED0DE0912903F0912A0378
:1046700082E08083E0912503F09126031082E0918F
:104680002703F091280380E1808310923103E091A9
:104690002D03F0912E0386E08083E0912B03F091AF
:1046A0002C03808180618083E0912B03F0912C03A7
:1046B000808188608083E0912B03F0912C038081BE
:1046C00080688083E0912B03F0912C0380818F7DA3
:1046D00080838BE295E00E94D60E8E010F5F1F4F04
:1046E000780110E000E07E2CCF2CC8010E948D31B3
:1046F000D7018D937D010F5F1F4F0F361105A9F76D
:1047000089819A8190930B0180930A018B819C810E
:104710009093AE028093AD028D819E819093510162
:10472000809350018F8198859093A5028093A40275
:1047300089859A8590936F0180936E018B859C8506
:104740009093570180935601ED84FE84F0925301BB
:10475000E09252018F85988990935D0180935C016E
:1047600089899A8990936D0180936C018B899C89CA
:1047700090930901809308018D899E8990930D0182
:1047800080930C018F89988D909307018093060187
:10479000098D1A8D1093940200939302BE01655EF9
:1047A0007F4F80E091E00E949135BE016F5D7F4FA9
:1047B0008FE291E00E949135BE016E5B7F4F8EE0EB
:1047C00091E00E949135BE016D597F4F8EE591E0D9
:1047D0000E949135BEECEB16B4E0FB0609F049C12E
:1047E00081E090E09093AE028093AD028CE0809FD8
:1047F000F001819FF00D1124EF51FC4F82819381D4
:104800009093FC038093FB0384818093FD03858157
:104810008093FE0386818093FF0387818093000449
:104820008085809301048185809302048285809332
:10483000030483858093040489EF93E00E94E40DD0
:104840006AE175E089EF93E00E94AA0661E080E0EA
:104850000E94AB0D0E94340C6EE571E089EF93E08D
:104860000E94C10E0E94070D80E68093C2030E9441
:104870005B0860E088E00E948D0860E087E00E94AD
:104880008D0860E084E00E948D0880910A0190917B
:104890000B010197E1F489EF93E00E94E40D64E1DC
:1048A00075E089EF93E00E94AA0607E010E030E08F
:1048B00020E050E040E061E070E080919302909150
:1048C00094020E94CC1090939402809393020AE881
:1048D00011E0F0E9AF2EF1E0BF2E7801F701D190A1
:1048E0007F0161E08D2D0E948D0860E08D2D0E947A
:1048F0002D08AE14BF0491F761E082E00E948D089C
:1049000061E082E00E942D0861E08CE00E948D0849
:1049100060E08CE00E942D0861E08DE00E948D082F
:1049200060E08DE00E942D0861E08DE00E942D087E
:1049300068EE73E080E090E00E94E30860E08DE0C4
:104940000E942D0868EC70E080E090E00E94E3088F
:10495000D801BC9061E08B2D0E942D08F801D18018
:1049600060E08D2D0E942D0868EB7BE080E090E0F8
:104970000E94E30860E08B2D0E942D0860E08D2DE1
:104980000E942D0868EC70E080E090E00E94E3084F
:1049900060E08B2D0E942D0861E08D2D0E942D0876
:1049A00068EB7BE080E090E00E94E30860E08B2D04
:1049B0000E942D0860E08D2D0E942D0868EC70E0AB
:1049C00080E090E00E94E3080E5F1F4FE016F106C2
:1049D00009F0BECF80910A0190910B01019709F077
:1049E000C9C061E08CE00E942D0868EB7BE080E0AC
:1049F00090E00E94E30860E08CE00E942D0868ECE3
:104A000070E080E090E00E94E30860E082E00E94B5
:104A10002D0860ED77E080E090E00E94E30861E01F
:104A200082E00E942D0868EC70E080E090E00E9437
:104A3000E30880E197E20E94400C0E94410D0E9431
:104A4000E30C892BD9F40E94660C0E94B81361E034
:104A500089E00E94AB0D80E10E94040862E175E0EC
:104A6000892B11F460E175E089EF93E00E94AA06BA
:104A7000E6CF1092AE021092AD02B8CE0E94301B6B
:104A800089EF93E00E94E40D0E94B81360ED77E097
:104A900080E090E00E94E30866E075E0CE01805976
:104AA0009F4F0E947A1789EF93E00E94E40D61E026
:104AB00082E00E94AB0D6EE571E089EF93E00E9409
:104AC000C10E10E000E02BE030E050E040E069E093
:104AD00070E090E080E00E94CC107C01BC01CE012F
:104AE00080599F4F0E941B172CE030E050E040E0BF
:104AF00069E070E0C7010E94CC107C01BC01CE01CE
:104B000080599F4F0E941B172DE030E050E040E09D
:104B100069E070E0C7010E94CC10BC01CE01805951
:104B20009F4F0E941B17E6960EAD1FADE69701152D
:104B3000110509F05EC010925E0161E080E00E9404
:104B4000AB0D0E94340C6EE571E089EF93E00E949A
:104B5000C10E60ED77E080E090E00E94E3081092E3
:104B60000B0110920A010E94931ACE0180599F4FA7
:104B70000E94581688E59BE10E94400CC057DF4F09
:104B800099838883C059D0400E94410D4090D7013D
:104B90005090D8016090D901ECE32E2E312C0E9468
:104BA0001609C856DF4F688379838A839B83C85967
:104BB000D0406091C0027091C1028091C202909178
:104BC000C30228EC30E040E050E00E942733890126
:104BD0000E94E30C83309105F9F08530910509F4CA
:104BE000A9C0029709F580916B018150D9F484E046
:104BF00019C00C30110510F00CE010E0E2966EAD1B
:104C00007FADE297A8018EE591E00E949835F8010A
:104C1000E25AFE4F108291CF80916B018F5F8530F9
:104C200008F086C080936B010536110534F085E0ED
:104C300080936B0181E08093BF02C80163E070E064
:104C40000E941333CA56DF4F99838883C659D040D8
:104C5000892BA1F060E080E00E94AB0D63E47BE073
:104C600089EF93E00E94AA0661E080E00E94AB0D0C
:104C700062E37BE089EF93E00E94AA0680916B01DA
:104C8000833009F4CEC308F059C0813009F499C1CA
:104C9000823009F4BAC3CA56DF4F28813981C65918
:104CA000D040232B31F469E27BE089EF93E00E944E
:104CB000AA060E941609AB01BC018091C002909126
:104CC000C102A091C202B091C302C856DF4F088151
:104CD00019812A813B81C859D040801B910BA20BBE
:104CE000B30B840F951FA61FB71F8093C00290932C
:104CF000C102A093C202B093C3028091BF02882375
:104D000041F01092C0021092C1021092C2021092A1
:104D1000C3021092BF0280E090E0892B09F43FCFDC
:104D20000E943807882309F43ACF0E94000034CF4C
:104D300081E078CF81E08093BF0276CF843009F4A0
:104D400019C4853009F0A7CF8091BF02882311F4E0
:104D50000C946F2F6EE571E0CE0180599F4F0E9439
:104D60003619E696EEACFFACE69757E0A52EB12CCF
:104D700017E0E116F10420F0570167E0E62EF12C70
:104D800062EC71E0CE0101960E943619E6960EADF6
:104D90001FADE697E016F10680F5A016B10608F4FF
:104DA0008501E296EEADFFADE297E00FF11FD080F6
:104DB0001082E2968EAD9FADE297E80EF91EE114E7
:104DC000F10479F0F70101900020E9F731975F01D4
:104DD000AE18BF08B501CE0101960E946B16811175
:104DE0002DC4CE0101960E944616E2968EAD9FAD6F
:104DF000E297080F191FD801DC92CE0101960E949C
:104E000060168B01CE0101960E945816CE01805982
:104E10009F4F0E94581680915C013EE1E32EE80E00
:104E200080916C014EE1F42EF80E89EF93E00E9420
:104E3000E40D0E94B8132091BE0221111092BE020F
:104E4000C80164E670E00E941333CE55DF4F9983AA
:104E50008883C25AD040C80162E370E00E941333D5
:104E600036E0389F8001399F100D1124C456DF4F62
:104E700019830883CC59D0400E2D10E0C257DF4F64
:104E800019830883CE58D0400F2D10E0CC55DF4F4A
:104E900019830883C45AD0408091BE0281110C94BA
:104EA000552F21114EC00E94EF0960327C418105CF
:104EB000910530F40E94301B89EF93E00E94E40DCD
:104EC0000E94360B8C010E942E0B9101201B310B8E
:104ED0004CE3429F8001439F100D1124081B190BC6
:104EE0000E94EF090433184024F4605F714F8F4F24
:104EF0009F4F0E94350A2091970230E060915A013D
:104F000070915B01C9010E941333892B09F09EC384
:104F10004091BC025091BD028091BA029091BB02B7
:104F2000841795070CF099C3241735070CF08EC32E
:104F3000281739070CF48AC381E08093CD021092C0
:104F4000B9028091B802882339F081E08093CD02C4
:104F50001092B7021092B90264EF71E080E090E025
:104F60000E94E30880915801909159010E94400CE1
:104F70000E94410D64EF71E080E090E00E94E30840
:104F80008090CD02912C28E1D22E3EE08316910430
:104F90000CF088C3F4013197ED30F10508F02BC710
:104FA000EC52F84D0C946833362B5A2B682B752B2A
:104FB000812BDB2BDE2BEC2B1E2E262E682EC92EF2
:104FC000FE2E60E080E00E94AB0D8091BF0288233E
:104FD00009F461CE85E0E4EFF1E0DE01AA57BF4FAE
:104FE00001900D928A95E1F7C557DF4F48825982AB
:104FF0006A82CB58D040E3964DAE5EAE6FAEE3977B
:1050000062EC71E0872D9C2D0E94361989EF93E0A8
:105010000E94E40D6BE775E089EF93E00E94AA0619
:1050200061E675E0872D9C2D0E94551765E070E0C4
:10503000872D9C2D0E941B176EE575E0872D9C2DFA
:105040000E94931682E595E00E94D60E62E070E021
:10505000CE0180599F4F0E94C115672D7C2D89E19B
:1050600093E00E949C060E94D00E64E170E0CE01A5
:1050700080599F4F0E94C11586E495E00E94D60E8C
:1050800062E070E0CE0180599F4F0E94C11584E319
:1050900095E00E94D60E62E070E0CE0180599F4FED
:1050A0000E94C1151091CC02872D9C2D0E9458168C
:1050B000112309F4E3C089EF93E00E94E40D68E551
:1050C0007AE089EF93E00E94AA066CE271E0CE01DB
:1050D0008A579F4F0E94C11561E080E00E94AB0D8E
:1050E00067E47AE089EF93E00E94AA066CE271E03F
:1050F000CE018A579F4F0E94C1150EE310E089EF41
:1051000093E00E94E40D65E27AE089EF93E00E946B
:10511000AA061A83098372E0F72E68EE73E080E036
:1051200090E00E94E3086BEC79E089E193E00E9453
:10513000AA0663E474E089E193E00E94310F0E94C3
:10514000D00E62E070E0CE0101960E94C115809100
:10515000CC02882391F061E879E089E193E00E9434
:10516000AA0688E699E00E94D60E8CE895E00E9497
:10517000D60E0E94D00E0E94D00E64E670E080E051
:1051800090E00E94E308F1E0FF1289C061E080E056
:105190000E94AB0D64E17AE089EF93E00E94AA06D9
:1051A00086E0E9EFF1E0DE01A058BF4F01900D92DB
:1051B0008A95E1F78AE0EFEFF1E0DE01A059BF4FF9
:1051C00001900D928A95E1F786E0E9E0F2E0DE01D8
:1051D000A658BF4F01900D928A95E1F719820E945F
:1051E000C00C89E193E00E942C07892BD1F3CE01FA
:1051F00080589F4F0E94530EF82E882309F47FCFCA
:1052000040E350E0BE016F5F7F4F86E20E9471096C
:1052100001E010E00C0F1D1F800F911FDC011C929C
:10522000B8018FE291E00E942E1ACE0180599F4F63
:105230000E94530E40E350E0B80186E20E947109DB
:10524000800F911FFC011082B8018EE091E00E9456
:105250002E1ACE0186589F4F0E94530E0E94980925
:10526000FC0197FDCEC08D329105E1F0C0970A9701
:10527000C8F089E193E00E940A07F0CF61E080E086
:105280000E94AB0D66E37AE089EF93E00E94AA06E4
:1052900060ED77E080E090E00E94E308FCCCFF2422
:1052A000F3943BCF812C912C540110E0E130F105B7
:1052B000D9F0ED32F10509F4A2C0CF01C0970A97E9
:1052C00098F4AAE0B0E0A50194010E94A3314F0137
:1052D000FF0FAA08BB08860E971EA81EB91EF0E392
:1052E0008F1A9108A108B10889E193E00E940A078A
:1052F0000E949809FC01C0970A97C0F2E130F105BD
:10530000A9F2112341F0B094A09490948094811C50
:10531000911CA11CB11CC501B4010E946D300E94FA
:10532000D33270930D0160930C0189EF93E00E94DA
:10533000E40D63E07AE089EF93E00E94AA0687EF2C
:1053400099E00E94D60E62E070E0CE0185579F4F33
:105350000E94C1150E94831789EF93E00E94E40D1B
:1053600060EF79E089EF93E00E94AA0661E080E0B7
:105370000E94AB0D6FE271E089EF93E00E94C10ED5
:1053800060ED77E080E090E00E94E30889EF93E031
:105390000E94E40D65EE79E089EF93E00E94AA0691
:1053A00061E080E00E94AB0D6EE071E089EF93E078
:1053B0000E94C10E60ED77E080E090E00E94E3087B
:1053C00089EF93E00E94E40D69ED79E089EF93E0C5
:1053D0000E94AA0661E080E00E94AB0D60910C0182
:1053E00070910D0189EF93E00E94310F60ED77E03D
:1053F00080E090E00E94E3080E94931A4CCC1F2D9D
:1054000073CF812C912C540186CF60E088E00E94FC
:10541000AB0D8091BF02882309F43DCC0E94301B64
:105420003ACC61E080E00E94AB0D8091BF028823FE
:1054300009F431CC8091CD02853019F08B3009F020
:1054400044C089EF93E00E94E40D6CE97AE089EFB3
:1054500093E00E94AA0668EE73E080E090E00E946C
:10546000E30801E010E030E020E050E040E068E7D1
:1054700070E080915C0190915D010E94CC1090934E
:105480005D0180935C0160E080E00E94AB0D6BE801
:105490007AE089EF93E00E94AA0668EE73E080E06C
:1054A00090E00E94E30802E010E030E020E050E0ED
:1054B00040E068E770E080916C0190916D010E947E
:1054C000CC1090936D0180936C0180916E0190914E
:1054D0006F014F9734F48EE190E090936F018093C9
:1054E0006E0180916E0190916F018D32914034F088
:1054F0008CE291E090936F0180936E0189EF93E0CD
:105500000E94E40D6AE77AE089EF93E00E94AA0620
:1055100068EE73E080E090E00E94E30805E010E0B0
:1055200030E020E050E040E062E070E090E080E0B9
:105530000E94CC10029709F05FCF89EF93E00E94A0
:10554000E40D69E67AE089EF93E00E94AA0668EE2E
:1055500073E080E090E00E94E30806E010E030E0B5
:1055600020E050E040E070E060E084E690E00E94DF
:10557000CC1042CF61E088E00E94AB0D8091BF0269
:10558000882309F488CB89EF93E00E94E40D6FEC47
:105590007AE089EF93E00E94AA0661E080E00E9431
:1055A000AB0D6EEB7AE089EF93E00E94AA0668EEFD
:1055B00073E080E090E00E94E30804E010E030E057
:1055C00020E042E050E063E070E090E080E00E9484
:1055D000CC1064EF71E080E090E00E94E308C057D7
:1055E000DF4F88819981C059D0400E94410D64EFFE
:1055F00071E080E090E00E94E30889EF93E00E9470
:10560000E40D61E080E00E94AB0D6DEA7AE089EF85
:1056100093E00E94AA0668EE73E080E090E00E94AA
:10562000E30803E010E030E020E050E040E062E01A
:1056300070E090E080E00E94CC102DCBBE82AD8265
:10564000B70189819A810E949135CFCB8BE08093FD
:10565000CD0281E08093B90274CC481759070CF051
:105660006BCC241735070CF467CC62CC64E27BE08A
:10567000CE0101960E947A1743E0CC55DF4F688136
:105680007981C45AD040CE0101960E947C15CE018A
:1056900001960E9458168091BE02882309F401C425
:1056A0008092CD022091BE022111FFC381E0809340
:1056B000CD02F2CB6FE17BE0CE0101960E947A171A
:1056C00041E0C257DF4F68817981CE58D040DBCFAF
:1056D00000916C0110916D016AE17BE0CE010196B1
:1056E0000E947A1742E0B801CECF00915C01109180
:1056F0005D0165E17BE0CE0101960E947A1740E0F2
:10570000F2CF8EE00FB6F894A895D09260000FBE4D
:105710008093600060E088E00E94AB0D6FEE71E066
:1057200089EF93E00E94C10E61E08DE00E942D0898
:1057300041E064E873E080E090E00E944E148091C4
:10574000BE0281112CC01092A0021092A1021092F0
:10575000A2021092A30204E610E00E94660C80915F
:10576000A0029091A102A091A202B091A302409147
:105770009C0250919D0260919E0270919F02840F45
:10578000951FA61FB71F8093A0029093A102A0931C
:10579000A202B093A302A89501501109F1F60FB629
:1057A000F894A895809160008861809360001092C1
:1057B00060000FBE70CF60E17BE07ECF00915C01A6
:1057C00010915D01035011096BE07BE0CE01019661
:1057D0000E947A1744E087CF8EE00FB6F894A89520
:1057E000D09260000FBE809360008091B70281115B
:1057F000EBC180915801909159019093B60280932A
:10580000B5028CE390E00E94D5142091B302309150
:10581000B4023093B2022093B1028091B50290910C
:10582000B602A901481B590BCA0157FF03C0919545
:10583000819591099093B0028093AF0285369105CE
:105840000CF4BAC18091AD029091AE02892B09F09F
:10585000B3C181E08093B7028091B802882309F137
:105860008091B70281111DC02091AA023091AB0234
:105870008091580190915901A901481B590B8091C1
:10588000560190915701840F951F90935701809373
:10589000560130935901209358011092B8020E948A
:1058A000931AA8958091B7028111BDC164EF71E090
:1058B00080E090E00E94E308A89564EF71E080E04A
:1058C00090E00E94E308A895A0905801B09059017B
:1058D0008FE00FB6F894A895D09260000FBE809329
:1058E00060008091B802882321F0A090AA02B090B5
:1058F000AB020E94B81300915201109153010A1992
:105900001B09780117FF04C0EE24FF24E01AF10AF6
:1059100060E082E00E942D08A89568EE73E080E0C8
:1059200090E00E94E30861E082E00E942D08A895C3
:1059300068EE73E080E090E00E94E30860E082E0BF
:105940000E942D08A8950FB6F894A8958091600044
:10595000886180936000109260000FBEC70179EEED
:10596000E71673E0F70614F088EE93E02AE0289F2C
:10597000B001299F700D1124072E000C880B990B84
:105980000E94E3088FE00FB6F894A895D0926000CB
:105990000FBE8093600061E082E00E942D08A89510
:1059A00017FF16C068EE73E080E090E00E94E30805
:1059B00060E082E00E942D08A89568EE73E080E028
:1059C00090E00E94E30861E082E00E942D08A89523
:1059D0001092A7021092A602809152019091530159
:1059E000A816B9060CF0B0C061E08CE00E942D084A
:1059F000A89520915001309151018091A40290917D
:105A0000A5022817390724F43093A5022093A40295
:105A1000E090A402F090A502C901032E000CAA0B8D
:105A2000BB0BCE56DF4F88839983AA83BB83C259B1
:105A3000D04000915201109153010A191B09D8015D
:105A40000E946E3328EE33E040E050E00E9449337C
:105A5000E216F3068CF428EE33E0D7010E94763389
:105A6000CE56DF4F288139814A815B81C259D040AF
:105A70000E94493389019701A0916E01B0916F0195
:105A8000AD010B2E000C660B770BC256DF4F48831F
:105A900059836A837B83CE59D0400E946E332AE0BB
:105AA00030E040E050E00E944933790159E5E516C5
:105AB00052E0F506FCF060E87DE88BE590E0C25628
:105AC000DF4F288139814A815B81CE59D0400E94C5
:105AD0004933CA01B901CE56DF4F288139814A8145
:105AE0005B81C259D0400E944933890198E5E92E73
:105AF00092E0F92E60E088E00E94AB0D69EE7AE05A
:105B000089EF93E00E94AA06B801012E000C880BD1
:105B1000990B0E946D3020E030E04AE754E40E9487
:105B2000613242E00E94E80FB701FF0C880B990B2D
:105B300040E00E946B0F60E08CE00E942D08109303
:105B4000A7020093A602A89561E082E00E942D08BA
:105B500060E08CE00E942D08A89564EF71E080E081
:105B600090E00E94E308A89564EF71E080E090E087
:105B70000E94E308C5010E94400C0E94410DA895B7
:105B800064EF71E080E090E00E94E30860E088E06C
:105B90000E94AB0D60EE7AE089EF93E00E94AA06C6
:105BA0000FB6F894A895809160008861809360009A
:105BB000109260000FBEF3CD81E08093AC02309371
:105BC00059012093580148CE8CE390E00E94D514EF
:105BD0002091B3023091B4028091B5029091B60247
:105BE000B901681B790BCB0177FF03C091958195B3
:105BF00091094091AF025091B0024817590774F4CF
:105C00008091B1029091B202909359018093580112
:105C10001092B70281E08093AC021ECE30935901FE
:105C200020935801F5CF60E08CE00E94AB0D67E057
:105C30007BE089EF93E00E94AA06B1CD62E07BE0B1
:105C4000CE0101960E947A1745E03BCD80E10E948B
:105C5000040821E0892B09F420E0209355010091EC
:105C60005C0110915D01065F1F4F6DEF7AE0CE0180
:105C700001960E947A1740E0B801CE0101960E9479
:105C80007C15CE0101960E94581680E10E940408FE
:105C900021E0892B09F420E02093540168EF7AE099
:105CA000CE0101960E947A1741E06AE070E0CE01D1
:105CB00001960E947C15CE0101960E945816809193
:105CC000B702882309F4E7CC84E0882E912CE3CC3A
:105CD0008EE00FB6F894A895D09260000FBE809326
:105CE000600060E088E00E94AB0D63EF7AE089EF2E
:105CF00093E00E94AA060E94360B8C010E942E0B94
:105D0000A101401B510B6CE3649F9001659F300D16
:105D10001124281B390BF901E850F740F7FF02C0A6
:105D2000F0E0E0E0C9018E1B9F0B8C52914064E6CD
:105D300070E00E941333CB01CE55DF4F08811981EB
:105D4000C25AD040809FB001819F700D909F700D0E
:105D500011246E0F7F1F77FF02C070E060E0261BEA
:105D6000370B3093A9022093A8028091AD02909145
:105D7000AE02019731F4C456DF4F68817981CC5966
:105D8000D040072E000C880B990B41E00E944E1466
:105D900006CD0FB6F894A895809160008861809335
:105DA0006000109260000FBE0E94301B8091B9020B
:105DB000811114C08091AD029091AE02892B71F4D3
:105DC0008091540190915501992309F48DC0882345
:105DD00029F064E070E085E00E940B0C8091B8022D
:105DE000882309F458CC1092B7021092B90289EFB7
:105DF00093E00E94E40D912C812C4DCC8EE00FB6E7
:105E0000F894A895D09260000FBE8093600089EF4F
:105E100093E00E94E40D60E088E00E94AB0D6EEE1E
:105E20007AE089EF93E00E94AA060E94360B8C016B
:105E30000E942E0BA101401B510B6CE3649F90014B
:105E4000659F300D1124281B390B6091A8027091B9
:105E5000A902261737070CF4B9018091AD02909181
:105E6000AE02019709F08DCF0E94360B4E978CF051
:105E70000E94360B8C010E942E0B9101201B310BCE
:105E80004CE3429FB001439F700D1124681B790BB6
:105E900078CF0E94360B8C010E942E0B2EE130E051
:105EA000EDCF1FEF811A910A70C888E19EE00FB60E
:105EB000F894A895809360000FBE9093600060E016
:105EC0008DE00E942D08A8950FB6F894A8958091B2
:105ED0006000886180936000109260000FBE81E0D6
:105EE00080936B010C944B26811178CF64E070E0B5
:105EF00084E072CF83EC93E00E9458168BED93E020
:105F00000E94581685ED93E00E9458168FEC93E09E
:105F10000E94581689EC93E00C945816FC018827CF
:105F20009927E89421912032E9F3293010F02E309E
:105F3000C8F32B3241F02D3239F4689404C00E942A
:105F40001230820F911D219120532A30C0F31EF48C
:105F5000909581959F4F08951F93FC01992788275D
:105F6000BC01E89411911032E9F3193010F01E30A1
:105F7000C8F31B3251F01D3249F4689406C00E94E8
:105F8000FD2F610F711D811D911D119110531A304C
:105F9000B0F33EF490958095709561957F4F8F4F4B
:105FA0009F4F1F910895FB01DC0105900D92002089
:105FB000E1F70895FC0105900020E9F780959095A0
:105FC0008E0F9F1F0895BB274A3031F4992322F486
:105FD000BDE2909581959F4F0C943D30BB272A30B0
:105FE00051F4992342F4BDE29095809570956195A6
:105FF0007F4F8F4F9F4F0C941B30592F482F372FB7
:10600000262F660F771F881F991F660F771F881F1F
:10601000991F620F731F841F951F660F771F881FBC
:10602000991F08957AE0979F902D879F802D910D5D
:1060300011240895BB27FA01A62F62177105810567
:106040009105330B30FB66F0AA27660F771F881F78
:10605000991FAA1FA21710F0A21B63953850A9F729
:10606000A05DAA3308F0A95DA19336F7B111B193F1
:106070001082CA010C945630BB27FB015527AA2772
:10608000880F991FAA1FA41710F0A41B83955051C5
:10609000B9F7A05DAA3308F0A95DA193009779F73D
:1060A000B111B1931192CB010C945630DC01FC017B
:1060B000672F71917723E1F7329704C07C916D933C
:1060C00070836291AE17BF07C8F308950E94A8308D
:1060D00008F481E00895E89409C097FB3EF4909598
:1060E0008095709561957F4F8F4F9F4F9923A9F0B1
:1060F000F92F96E9BB279395F69587957795679540
:10610000B795F111F8CFFAF4BB0F11F460FF1BC083
:106110006F5F7F4F8F4F9F4F16C0882311F096E916
:1061200011C0772321F09EE8872F762F05C06623C4
:1061300071F096E8862F70E060E02AF09A95660F7D
:10614000771F881FDAF7880F9695879597F9089536
:10615000990F0008550FAA0BE0E8FEEF1616170678
:10616000E807F907C0F012161306E407F50798F0E0
:10617000621B730B840B950B39F40A2661F0232BF9
:10618000242B252B21F408950A2609F4A140A69575
:106190008FEF811D811D08950E94DF300C945331D3
:1061A0000E94453138F00E944C3120F0952311F0C7
:1061B0000C943C310C94423111240C9487310E9490
:1061C000643170F3959FC1F3950F50E0551F629FA6
:1061D000F001729FBB27F00DB11D639FAA27F00D40
:1061E000B11DAA1F649F6627B00DA11D661F829F67
:1061F0002227B00DA11D621F739FB00DA11D621F4C
:10620000839FA00D611D221F749F3327A00D611D68
:10621000231F849F600D211D822F762F6A2F11244A
:106220009F5750409AF0F1F088234AF0EE0FFF1F7D
:10623000BB1F661F771F881F91505040A9F79E3FD4
:10624000510580F00C943C310C9487315F3FE4F3AE
:10625000983ED4F3869577956795B795F795E7952A
:106260009F5FC1F7FE2B880F911D9695879597F933
:10627000089599278827089597F99F6780E870E027
:1062800060E008959FEF80EC089500240A941616AC
:10629000170618060906089500240A941216130614
:1062A000140605060895092E0394000C11F48823A2
:1062B00052F0BB0F40F4BF2B11F460FF04C06F5FBE
:1062C0007F4F8F4F9F4F089557FD9058440F551F94
:1062D00059F05F3F71F04795880F97FB991F61F068
:1062E0009F3F79F087950895121613061406551FDF
:1062F000F2CF4695F1DF08C0161617061806991F4B
:10630000F1CF86957105610508940895E894BB273F
:1063100066277727CB0197F90895F999FECF92BDAB
:1063200081BDF89A992780B50895262FF999FECF57
:106330001FBA92BD81BD20BD0FB6F894FA9AF99AA2
:106340000FBE019608950E94E531A59F900DB49F60
:10635000900DA49F800D911D112408952F923F92BE
:106360004F925F926F927F928F929F92AF92BF9265
:10637000CF92DF92EF92FF920F931F93CF93DF9311
:10638000CDB7DEB7CA1BDB0B0FB6F894DEBF0FBE6E
:10639000CDBF09942A88398848885F846E847D84BB
:1063A0008C849B84AA84B984C884DF80EE80FD80BD
:1063B0000C811B81AA81B981CE0FD11D0FB6F89433
:1063C000DEBF0FBECDBFED010895A29FB001B39F08
:1063D000C001A39F700D811D1124911DB29F700DEE
:1063E000811D1124911D08955058BB27AA270E9492
:1063F0000C320C9453310E94453138F00E944C31DC
:1064000020F039F49F3F19F426F40C9442310EF435
:10641000E095E7FB0C943C31E92F0E94643158F37E
:10642000BA17620773078407950720F079F4A6F579
:106430000C9486310EF4E0950B2EBA2FA02D0B0193
:10644000B90190010C01CA01A0011124FF27591BB9
:1064500099F0593F50F4503E68F11A16F040A22FBF
:10646000232F342F4427585FF3CF46953795279530
:10647000A795F0405395C9F77EF41F16BA0B620B2F
:10648000730B840BBAF09150A1F0FF0FBB1F661F76
:10649000771F881FC2F70EC0BA0F621F731F841FB9
:1064A00048F4879577956795B795F7959E3F08F0DF
:1064B000B0CF9395880F08F09927EE0F97958795A1
:1064C00008950E9475320C9453310E944C3158F05B
:1064D0000E94453140F029F45F3F29F00C943C3193
:1064E00051110C9487310C9442310E94643168F34D
:1064F0009923B1F3552391F3951B550BBB27AA277D
:1065000062177307840738F09F5F5F4F220F331FB6
:10651000441FAA1FA9F335D00E2E3AF0E0E832D07E
:1065200091505040E695001CCAF72BD0FE2F29D081
:10653000660F771F881FBB1F261737074807AB0753
:10654000B0E809F0BB0B802DBF01FF2793585F4FC8
:106550003AF09E3F510578F00C943C310C94873111
:106560005F3FE4F3983ED4F3869577956795B795AA
:10657000F7959F5FC9F7880F911D9695879597F9B5
:106580000895E1E0660F771F881FBB1F621773072E
:106590008407BA0720F0621B730B840BBA0BEE1F43
:1065A00088F7E09508950E94DA326894B1110C944E
:1065B000873108950E946C3188F09F5798F0B92F69
:1065C0009927B751B0F0E1F0660F771F881F991F28
:1065D0001AF0BA95C9F714C0B13091F00E94863113
:1065E000B1E008950C948631672F782F8827B85F23
:1065F00039F0B93FCCF3869577956795B395D9F780
:106600003EF490958095709561957F4F8F4F9F4F89
:1066100008950E94A83008F48FEF08950E94A830D2
:10662000880B990B089597FB072E16F4009407D05A
:1066300077FD09D00E947D3307FC05D03EF490958C
:1066400081959F4F0895709561957F4F0895A1E2C0
:106650001A2EAA1BBB1BFD010DC0AA1FBB1FEE1FDC
:10666000FF1FA217B307E407F50720F0A21BB30B27
:10667000E40BF50B661F771F881F991F1A9469F7A3
:1066800060957095809590959B01AC01BD01CF01FF
:106690000895052E97FB1EF400940E94603357FD69
:1066A00007D00E94273307FC03D04EF40C946033CC
:1066B00050954095309521953F4F4F4F5F4F08952E
:1066C00090958095709561957F4F8F4F9F4F08955E
:1066D000EE0FFF1F0590F491E02D09940E94E53123
:1066E000332312F48A1B9B0B0C9478330E94E53100
:1066F000B7FF0895821B930B0895AA1BBB1B51E1A2
:1067000007C0AA1FBB1FA617B70710F0A61BB70B21
:10671000881F991F5A95A9F780959095BC01CD01C6
:1067200008950F931F93CF93DF938230910510F458
:1067300082E090E0E0910704F091080430E020E06E
:10674000B0E0A0E0309799F42115310509F44AC072
:10675000281B390B24303105D8F58A819B816115BE
:10676000710589F1FB0193838283FE0111C0408191
:1067700051810281138148175907E0F048175907E2
:1067800099F4109761F012960C93129713961C933C
:106790003296CF01DF91CF911F910F910895009311
:1067A000070410930804F4CF2115310551F0421766
:1067B000530738F0A901DB019A01BD01DF01F8019F
:1067C000C1CFEF01F9CF9093080480930704CDCF98
:1067D000FE01E20FF31F8193919322503109398317
:1067E0002883D7CF2091050430910604232B41F450
:1067F00020917201309173013093060420930504B7
:1068000020917001309171012115310541F42DB7AE
:106810003EB74091740150917501241B350BE091F6
:106820000504F0910604E217F307A0F42E1B3F0BBA
:106830002817390778F0AC014E5F5F4F24173507F2
:1068400048F04E0F5F1F5093060440930504819358
:1068500091939FCFF0E0E0E09CCFCF93DF93009740
:10686000E9F0FC01329713821282A0910704B091E3
:106870000804ED0130E020E01097A1F4208131817F
:10688000820F931F209105043091060428173907C1
:1068900009F061C0F0930604E0930504DF91CF9105
:1068A0000895EA01CE17DF07E8F54A815B819E0172
:1068B00041155105B1F7E901FB83EA8349915991EB
:1068C000C40FD51FEC17FD0761F4808191810296FA
:1068D000840F951FE90199838883828193819B832B
:1068E0008A83F0E0E0E012968D919C9113970097D7
:1068F000B9F52D913C911197CD010296820F931F0E
:1069000020910504309106042817390739F630978D
:1069100051F51092080410920704B0930604A09356
:106920000504BCCFD383C28340815181840F951F5E
:10693000C817D90761F44E5F5F4F88819981480F6E
:10694000591F518340838A819B81938382832115C0
:10695000310509F0B0CFF0930804E09307049ECF0F
:10696000FD01DC01C0CF13821282D7CFB0E0A0E0DE
:10697000ECEBF4E30C94B0318C01009751F4CB01B3
:106980000E9491338C01C801CDB7DEB7E0E10C94D1
:10699000CC31FC01E60FF71F9C0122503109E217B0
:1069A000F30708F49DC0D901CD91DC911197C6176A
:1069B000D70798F0C530D10530F3CE01049786177C
:1069C000970708F3C61BD70B2297C193D1936D93FA
:1069D0007C93CF010E942D34D6CF5B01AC1ABD0A47
:1069E0004C018C0E9D1EA0910704B0910804512CFF
:1069F000412CF12CE12C109731F5809105049091F8
:106A000006048815990509F05CC04616570608F07B
:106A100058C08091700190917101009741F48DB739
:106A20009EB74091740150917501841B950BE81736
:106A3000F90708F055C0F0930604E0930504F90146
:106A400071836083A0CF8D919C91119712966C9069
:106A5000129713967C901397A815B90559F56C01F8
:106A600042E0C40ED11CCA14DB0420F1AC014A1967
:106A70005B09DA011296159780F062827382518366
:106A80004083D9016D937C93E114F10471F0D70137
:106A90001396FC93EE93129776CF22968C0F9D1F40
:106AA000F90191838083F301EFCFF0930804E09321
:106AB000070469CF4816590608F42C017D01D3015B
:106AC0009ACFCB010E9491337C01009749F0AE012F
:106AD000B8010E947F35C8010E942D34870153CF31
:106AE00010E000E050CF91110C94393180538A505E
:106AF00028F0865C806281568650B0F70895FB01CD
:106B0000DC0102C001900D9241505040D8F7089529
:106B1000FB01DC018D91019080190110D9F3990BD3
:106B20000895FB01DC0101900D920020E1F708952A
:106B3000FB01DC014150504048F001900D920020D3
:106B4000C9F701C01D9241505040E0F7089516E08A
:106B5000C1E1D6E004C0FE010E9468332196C23133
:086B6000D107C9F7F894FFCF3B
:106B6800436E42410000050010270100080030393B
:106B7800323234373332363700000000000000006C
:106B880000000000000000000000000000000054A9
:106B980061796C65725F486F6D65000000000000E8
:106BA80000000000000000000000000000000000DD
:106BB800DC004C1D01014C1DFFFF01001B004B4870
:106BC800312D30302D3030303030000126008E002D
:106BD80000000904800000004000140054001F1C3D
:106BE8001F1E1F1E1F1F1E1F1E1F0B0A050306093F
:106BF800000000006E07CE06FB06BB072C070A073D
:106C08001E0700000000C60B990B080C6F0B920BB7
:106C18007F0B700B00000000DE0DCE06080C9B06F3
:106C28000D0A006E616E00696E66006F7666003050
:106C3800003A00222C22004F4B006E6F00696E76DE
:106C4800616C696400282800446174653A2000205A
:106C5800413620004950442C00737369643D00702C
:106C6800617373776F72643D0074696D653D0000F0
:107E0000112484B714BE81FFF0D085E080938100F7
:107E100082E08093C00088E18093C10086E0809377
:107E2000C20080E18093C4008EE0C9D0259A86E02C
:107E300020E33CEF91E0309385002093840096BBD3
:107E4000B09BFECF1D9AA8958150A9F7CC24DD24C4
:107E500088248394B5E0AB2EA1E19A2EF3E0BF2EE7
:107E6000A2D0813461F49FD0082FAFD0023811F036
:107E7000013811F484E001C083E08DD089C08234E0
:107E800011F484E103C0853419F485E0A6D080C0E4
:107E9000853579F488D0E82EFF2485D0082F10E0AE
:107EA000102F00270E291F29000F111F8ED06801E7
:107EB0006FC0863521F484E090D080E0DECF843638
:107EC00009F040C070D06FD0082F6DD080E0C81688
:107ED00080E7D80618F4F601B7BEE895C0E0D1E017
:107EE00062D089930C17E1F7F0E0CF16F0E7DF06D8
:107EF00018F0F601B7BEE89568D007B600FCFDCFD4
:107F0000A601A0E0B1E02C9130E011968C91119780
:107F100090E0982F8827822B932B1296FA010C0160
:107F200087BEE89511244E5F5F4FF1E0A038BF0790
:107F300051F7F601A7BEE89507B600FCFDCF97BE46
:107F4000E89526C08437B1F42ED02DD0F82E2BD052
:107F50003CD0F601EF2C8F010F5F1F4F84911BD097
:107F6000EA94F801C1F70894C11CD11CFA94CF0C13
:107F7000D11C0EC0853739F428D08EE10CD085E9AC
:107F80000AD08FE07ACF813511F488E018D01DD067
:107F900080E101D065CF982F8091C00085FFFCCF94
:107FA0009093C60008958091C00087FFFCCF809118
:107FB000C00084FD01C0A8958091C6000895E0E648
:107FC000F0E098E1908380830895EDDF803219F02E
:107FD00088E0F5DFFFCF84E1DECF1F93182FE3DFCA
:107FE0001150E9F7F2DF1F91089580E0E8DFEE27F6
:047FF000FF270994CA
:027FFE00040479
:0400000300007E007B
:00000001FF
